{
  "contractName": "PiggyHelper",
  "abi": [
    {
      "inputs": [],
      "payable": false,
      "stateMutability": "nonpayable",
      "type": "constructor"
    },
    {
      "anonymous": false,
      "inputs": [
        {
          "indexed": true,
          "internalType": "address",
          "name": "from",
          "type": "address"
        },
        {
          "indexed": true,
          "internalType": "address",
          "name": "arbiter",
          "type": "address"
        },
        {
          "indexed": true,
          "internalType": "uint256",
          "name": "tokenId",
          "type": "uint256"
        }
      ],
      "name": "ArbiterSet",
      "type": "event"
    },
    {
      "anonymous": false,
      "inputs": [
        {
          "indexed": true,
          "internalType": "address",
          "name": "from",
          "type": "address"
        },
        {
          "indexed": false,
          "internalType": "address",
          "name": "arbiter",
          "type": "address"
        },
        {
          "indexed": true,
          "internalType": "uint256",
          "name": "tokenId",
          "type": "uint256"
        },
        {
          "indexed": true,
          "internalType": "uint256",
          "name": "exercisePrice",
          "type": "uint256"
        }
      ],
      "name": "ArbiterSettled",
      "type": "event"
    },
    {
      "anonymous": false,
      "inputs": [
        {
          "indexed": false,
          "internalType": "address[]",
          "name": "addresses",
          "type": "address[]"
        },
        {
          "indexed": false,
          "internalType": "uint256[]",
          "name": "ints",
          "type": "uint256[]"
        },
        {
          "indexed": false,
          "internalType": "bool[]",
          "name": "bools",
          "type": "bool[]"
        }
      ],
      "name": "CreatePiggy",
      "type": "event"
    },
    {
      "anonymous": false,
      "inputs": [
        {
          "indexed": true,
          "internalType": "address",
          "name": "from",
          "type": "address"
        }
      ],
      "name": "Frozen",
      "type": "event"
    },
    {
      "anonymous": false,
      "inputs": [
        {
          "indexed": true,
          "internalType": "address",
          "name": "from",
          "type": "address"
        },
        {
          "indexed": true,
          "internalType": "uint256",
          "name": "tokenId",
          "type": "uint256"
        },
        {
          "indexed": true,
          "internalType": "uint256",
          "name": "proposedPrice",
          "type": "uint256"
        }
      ],
      "name": "PriceProposed",
      "type": "event"
    },
    {
      "anonymous": false,
      "inputs": [
        {
          "indexed": true,
          "internalType": "address",
          "name": "from",
          "type": "address"
        },
        {
          "indexed": true,
          "internalType": "uint256",
          "name": "tokenId",
          "type": "uint256"
        },
        {
          "indexed": true,
          "internalType": "uint256",
          "name": "holderPayout",
          "type": "uint256"
        },
        {
          "indexed": false,
          "internalType": "uint256",
          "name": "writerPayout",
          "type": "uint256"
        }
      ],
      "name": "SettlePiggy",
      "type": "event"
    },
    {
      "anonymous": false,
      "inputs": [
        {
          "indexed": true,
          "internalType": "address",
          "name": "from",
          "type": "address"
        }
      ],
      "name": "Unfrozen",
      "type": "event"
    },
    {
      "anonymous": false,
      "inputs": [
        {
          "indexed": true,
          "internalType": "address",
          "name": "from",
          "type": "address"
        },
        {
          "indexed": true,
          "internalType": "uint256",
          "name": "tokenId",
          "type": "uint256"
        },
        {
          "indexed": true,
          "internalType": "uint8",
          "name": "rfpNonce",
          "type": "uint8"
        },
        {
          "indexed": false,
          "internalType": "address",
          "name": "collateralERC",
          "type": "address"
        },
        {
          "indexed": false,
          "internalType": "address",
          "name": "dataResolver",
          "type": "address"
        },
        {
          "indexed": false,
          "internalType": "address",
          "name": "arbiter",
          "type": "address"
        },
        {
          "indexed": false,
          "internalType": "uint256",
          "name": "reqCollateral",
          "type": "uint256"
        },
        {
          "indexed": false,
          "internalType": "uint256",
          "name": "lotSize",
          "type": "uint256"
        },
        {
          "indexed": false,
          "internalType": "uint256",
          "name": "strikePrice",
          "type": "uint256"
        },
        {
          "indexed": false,
          "internalType": "uint256",
          "name": "expiry",
          "type": "uint256"
        },
        {
          "indexed": false,
          "internalType": "bool",
          "name": "isEuro",
          "type": "bool"
        },
        {
          "indexed": false,
          "internalType": "bool",
          "name": "isPut",
          "type": "bool"
        }
      ],
      "name": "UpdateRFP",
      "type": "event"
    },
    {
      "constant": false,
      "inputs": [
        {
          "internalType": "address",
          "name": "_newAdmin",
          "type": "address"
        }
      ],
      "name": "addAdministrator",
      "outputs": [
        {
          "internalType": "bool",
          "name": "",
          "type": "bool"
        }
      ],
      "payable": false,
      "stateMutability": "nonpayable",
      "type": "function"
    },
    {
      "constant": true,
      "inputs": [],
      "name": "cooldown",
      "outputs": [
        {
          "internalType": "uint256",
          "name": "",
          "type": "uint256"
        }
      ],
      "payable": false,
      "stateMutability": "view",
      "type": "function"
    },
    {
      "constant": false,
      "inputs": [
        {
          "internalType": "address",
          "name": "_admin",
          "type": "address"
        }
      ],
      "name": "deleteAdministrator",
      "outputs": [
        {
          "internalType": "bool",
          "name": "",
          "type": "bool"
        }
      ],
      "payable": false,
      "stateMutability": "nonpayable",
      "type": "function"
    },
    {
      "constant": true,
      "inputs": [],
      "name": "feeAddress",
      "outputs": [
        {
          "internalType": "address payable",
          "name": "",
          "type": "address"
        }
      ],
      "payable": false,
      "stateMutability": "view",
      "type": "function"
    },
    {
      "constant": true,
      "inputs": [],
      "name": "feePercent",
      "outputs": [
        {
          "internalType": "uint8",
          "name": "",
          "type": "uint8"
        }
      ],
      "payable": false,
      "stateMutability": "view",
      "type": "function"
    },
    {
      "constant": true,
      "inputs": [],
      "name": "feeResolution",
      "outputs": [
        {
          "internalType": "uint16",
          "name": "",
          "type": "uint16"
        }
      ],
      "payable": false,
      "stateMutability": "view",
      "type": "function"
    },
    {
      "constant": false,
      "inputs": [],
      "name": "freeze",
      "outputs": [
        {
          "internalType": "bool",
          "name": "",
          "type": "bool"
        }
      ],
      "payable": false,
      "stateMutability": "nonpayable",
      "type": "function"
    },
    {
      "constant": true,
      "inputs": [],
      "name": "helperAddress",
      "outputs": [
        {
          "internalType": "address",
          "name": "",
          "type": "address"
        }
      ],
      "payable": false,
      "stateMutability": "view",
      "type": "function"
    },
    {
      "constant": true,
      "inputs": [
        {
          "internalType": "address",
          "name": "_admin",
          "type": "address"
        }
      ],
      "name": "isAdministrator",
      "outputs": [
        {
          "internalType": "bool",
          "name": "",
          "type": "bool"
        }
      ],
      "payable": false,
      "stateMutability": "view",
      "type": "function"
    },
    {
      "constant": true,
      "inputs": [],
      "name": "notFrozen",
      "outputs": [
        {
          "internalType": "bool",
          "name": "",
          "type": "bool"
        }
      ],
      "payable": false,
      "stateMutability": "view",
      "type": "function"
    },
    {
      "constant": false,
      "inputs": [
        {
          "internalType": "address payable",
          "name": "_newAddress",
          "type": "address"
        }
      ],
      "name": "setFeeAddress",
      "outputs": [
        {
          "internalType": "bool",
          "name": "",
          "type": "bool"
        }
      ],
      "payable": false,
      "stateMutability": "nonpayable",
      "type": "function"
    },
    {
      "constant": false,
      "inputs": [
        {
          "internalType": "uint8",
          "name": "_newFee",
          "type": "uint8"
        }
      ],
      "name": "setFeePercent",
      "outputs": [
        {
          "internalType": "bool",
          "name": "",
          "type": "bool"
        }
      ],
      "payable": false,
      "stateMutability": "nonpayable",
      "type": "function"
    },
    {
      "constant": false,
      "inputs": [
        {
          "internalType": "uint16",
          "name": "_newResolution",
          "type": "uint16"
        }
      ],
      "name": "setFeeResolution",
      "outputs": [
        {
          "internalType": "bool",
          "name": "",
          "type": "bool"
        }
      ],
      "payable": false,
      "stateMutability": "nonpayable",
      "type": "function"
    },
    {
      "constant": true,
      "inputs": [],
      "name": "tokenId",
      "outputs": [
        {
          "internalType": "uint256",
          "name": "",
          "type": "uint256"
        }
      ],
      "payable": false,
      "stateMutability": "view",
      "type": "function"
    },
    {
      "constant": false,
      "inputs": [],
      "name": "unfreeze",
      "outputs": [
        {
          "internalType": "bool",
          "name": "",
          "type": "bool"
        }
      ],
      "payable": false,
      "stateMutability": "nonpayable",
      "type": "function"
    },
    {
      "constant": false,
      "inputs": [
        {
          "internalType": "uint256",
          "name": "_tokenId",
          "type": "uint256"
        },
        {
          "internalType": "address",
          "name": "_collateralERC",
          "type": "address"
        },
        {
          "internalType": "address",
          "name": "_dataResolver",
          "type": "address"
        },
        {
          "internalType": "address",
          "name": "_arbiter",
          "type": "address"
        },
        {
          "internalType": "uint256",
          "name": "_reqCollateral",
          "type": "uint256"
        },
        {
          "internalType": "uint256",
          "name": "_lotSize",
          "type": "uint256"
        },
        {
          "internalType": "uint256",
          "name": "_strikePrice",
          "type": "uint256"
        },
        {
          "internalType": "uint256",
          "name": "_expiry",
          "type": "uint256"
        },
        {
          "internalType": "bool",
          "name": "_isEuro",
          "type": "bool"
        },
        {
          "internalType": "bool",
          "name": "_isPut",
          "type": "bool"
        }
      ],
      "name": "updateRFP",
      "outputs": [
        {
          "internalType": "bool",
          "name": "",
          "type": "bool"
        }
      ],
      "payable": false,
      "stateMutability": "nonpayable",
      "type": "function"
    },
    {
      "constant": false,
      "inputs": [
        {
          "internalType": "uint256",
          "name": "_tokenId",
          "type": "uint256"
        }
      ],
      "name": "settlePiggy",
      "outputs": [
        {
          "internalType": "bool",
          "name": "",
          "type": "bool"
        }
      ],
      "payable": false,
      "stateMutability": "nonpayable",
      "type": "function"
    },
    {
      "constant": false,
      "inputs": [
        {
          "internalType": "uint256",
          "name": "_tokenId",
          "type": "uint256"
        },
        {
          "internalType": "address",
          "name": "_newArbiter",
          "type": "address"
        }
      ],
      "name": "updateArbiter",
      "outputs": [
        {
          "internalType": "bool",
          "name": "",
          "type": "bool"
        }
      ],
      "payable": false,
      "stateMutability": "nonpayable",
      "type": "function"
    },
    {
      "constant": false,
      "inputs": [
        {
          "internalType": "uint256",
          "name": "_tokenId",
          "type": "uint256"
        },
        {
          "internalType": "uint256",
          "name": "_proposedPrice",
          "type": "uint256"
        }
      ],
      "name": "thirdPartyArbitrationSettlement",
      "outputs": [
        {
          "internalType": "bool",
          "name": "",
          "type": "bool"
        }
      ],
      "payable": false,
      "stateMutability": "nonpayable",
      "type": "function"
    },
    {
      "constant": false,
      "inputs": [
        {
          "internalType": "address",
          "name": "_collateralERC",
          "type": "address"
        },
        {
          "internalType": "address",
          "name": "_dataResolver",
          "type": "address"
        },
        {
          "internalType": "address",
          "name": "_arbiter",
          "type": "address"
        },
        {
          "internalType": "uint256",
          "name": "_collateral",
          "type": "uint256"
        },
        {
          "internalType": "uint256",
          "name": "_lotSize",
          "type": "uint256"
        },
        {
          "internalType": "uint256",
          "name": "_strikePrice",
          "type": "uint256"
        },
        {
          "internalType": "uint256",
          "name": "_expiry",
          "type": "uint256"
        },
        {
          "internalType": "uint256",
          "name": "_splitTokenId",
          "type": "uint256"
        },
        {
          "internalType": "bool",
          "name": "_isEuro",
          "type": "bool"
        },
        {
          "internalType": "bool",
          "name": "_isPut",
          "type": "bool"
        },
        {
          "internalType": "bool",
          "name": "_isRequest",
          "type": "bool"
        },
        {
          "internalType": "bool",
          "name": "_isSplit",
          "type": "bool"
        }
      ],
      "name": "_constructPiggy",
      "outputs": [
        {
          "internalType": "bool",
          "name": "",
          "type": "bool"
        }
      ],
      "payable": false,
      "stateMutability": "nonpayable",
      "type": "function"
    }
  ],
  "bytecode": "0x608060405234801561001057600080fd5b503360008181526020819052604081208054600160ff1991821681179092558154168117610100600160a81b0319166101009093029290921760ff60a81b1916601960a91b1761ffff60b01b191661027160b41b17825560059190915561245790819061007d90396000f3fe608060405234801561001057600080fd5b50600436106100fc5760003560e01c8063024122c3146101015780630983ec951461017c5780630a2eb3011461019b57806317d70f7c146101c15780632894209f146101db57806341275358146101f85780634b0c80861461021c57806362a5af3b1461023d5780636a28f00014610245578063787a08a61461024d5780637974db4b146102555780637fd6f15c1461025d5780638705fcd41461027b57806395d96ef8146102a15780639dd44d261461031a578063bd5512f81461033d578063c999117614610345578063dc7154cb1461036b578063f483817614610391578063f74b9dcc146103b1575b600080fd5b610168600480360361014081101561011857600080fd5b508035906001600160a01b03602082013581169160408101358216916060820135169060808101359060a08101359060c08101359060e081013590610100810135151590610120013515156103dd565b604080519115158252519081900360200190f35b6101846107e0565b6040805161ffff9092168252519081900360200190f35b610168600480360360208110156101b157600080fd5b50356001600160a01b03166107f1565b6101c961080f565b60408051918252519081900360200190f35b610168600480360360208110156101f157600080fd5b5035610815565b610200610bc4565b604080516001600160a01b039092168252519081900360200190f35b6101686004803603602081101561023257600080fd5b503561ffff16610bd8565b610168610c30565b610168610c94565b6101c9610cf9565b610200610cff565b610265610d0e565b6040805160ff9092168252519081900360200190f35b6101686004803603602081101561029157600080fd5b50356001600160a01b0316610d1e565b61016860048036036101808110156102b857600080fd5b506001600160a01b03813581169160208101358216916040820135169060608101359060808101359060a08101359060c08101359060e08101359061010081013515159061012081013515159061014081013515159061016001351515610d6e565b6101686004803603604081101561033057600080fd5b5080359060200135611566565b6101686119b1565b6101686004803603602081101561035b57600080fd5b50356001600160a01b03166119ba565b6101686004803603602081101561038157600080fd5b50356001600160a01b0316611a0b565b610168600480360360208110156103a757600080fd5b503560ff16611a58565b610168600480360360408110156103c757600080fd5b50803590602001356001600160a01b0316611aa0565b60015460009060ff16610429576040805162461bcd60e51b815260206004820152600f60248201526e31b7b73a3930b1ba10333937bd32b760891b604482015290519081900360640190fd5b60008b8152600a60205260409020600101546001600160a01b03163314610493576040805162461bcd60e51b815260206004820152601960248201527839b2b73232b91036bab9ba103132903a3432903437b63232b960391b604482015290519081900360640190fd5b60008b8152600a602052604090206012015460ff166104f6576040805162461bcd60e51b815260206004820152601a6024820152790796f752063616e206f6e6c792075706461746520616e205246560341b604482015290519081900360640190fd5b60008b8152600b6020819052604090912001546301000000900460ff161561054f5760405162461bcd60e51b81526004018080602001828103825260258152602001806123806025913960400191505060405180910390fd5b60006001600160a01b038b161561058b5760008c8152600a6020526040902060020180546001600160a01b0319166001600160a01b038d161790555b6001600160a01b038a16156105c55760008c8152600a6020526040902060030180546001600160a01b0319166001600160a01b038c161790555b6001600160a01b038916156105ff5760008c8152600a6020526040902060040180546001600160a01b0319166001600160a01b038b161790555b871561061a5760008c8152600a60205260409020600c018890555b86156106355760008c8152600a602052604090206008018790555b85156106505760008c8152600a602052604090206009018690555b841561067d57610666854363ffffffff611d6516565b60008d8152600a60205260409020600b0181905590505b60008c8152600a6020526040902060128101805461ff001916610100871515021762ff000019166201000086151502179055601101600160208082049092018054600160ff601f9094166101000a808304851682018516810294021990911692909217905560008e8152600a909252604090912060110190602091828204019190069054906101000a900460ff1660ff168c336001600160a01b03167f4e6e1cfd5dc908613636720b781b08d24a1b88e325340700b5ab603561cd65c98e8e8e8e8e8e8a8e8e604051808a6001600160a01b03166001600160a01b03168152602001896001600160a01b03166001600160a01b03168152602001886001600160a01b03166001600160a01b031681526020018781526020018681526020018581526020018481526020018315151515815260200182151515158152602001995050505050505050505060405180910390a45060019b9a5050505050505050505050565b600154600160b01b900461ffff1681565b6001600160a01b031660009081526020819052604090205460ff1690565b60045481565b60003361082157600080fd5b8161086c576040805162461bcd60e51b8152602060048201526016602482015275746f6b656e49642063616e6e6f74206265207a65726f60501b604482015290519081900360640190fd5b6000828152600a60205260409020601201546301000000900460ff166108d0576040805162461bcd60e51b81526020600482015260146024820152731c1a59d9de481a5cc81b9bdd0818db19585c995960621b604482015290519081900360640190fd5b6000828152600a60205260408120600401546001600160a01b031614610940576000828152600a60205260409020600d01544310156109405760405162461bcd60e51b815260040180806020018281038252602781526020018061232a6027913960400191505060405180910390fd5b6000828152600a6020526040812060120154610100900460ff16156109c0576000838152600a60205260409020600b01544310156109c0576040805162461bcd60e51b8152602060048201526018602482015277195d5c9bdc19585b881b5d5cdd08189948195e1c1a5c995960421b604482015290519081900360640190fd5b6109c983611db1565b6000848152600a602052604090208054600182015460028301546007909301549394506001600160a01b0391821693908216929091169080851115610a0c578094505b6000610a1786611e75565b6001546001600160a01b036101009091048116600090815260066020908152604080832093881683529290522054909150610a58908263ffffffff611d6516565b6001546001600160a01b036101009091048116600090815260066020818152604080842089861680865290835281852096909655938916835290815282822093825292909252902054610ac3908290610ab7908963ffffffff611d6516565b9063ffffffff611ea216565b6001600160a01b03808616600090815260066020818152604080842089861680865290835281852096909655938a16835290815282822093825292909252902054610b1a908790610ab7908563ffffffff611d6516565b6001600160a01b03808716600090815260066020908152604080832093881683529290522055610b50868263ffffffff611ea216565b6000898152600a6020526040902060070154899033907f24827fe6f8d4089bee240c9fb4b9fb5a994e34610b00aeb4cfc427f4807cca1a90610b92908b611ea2565b60408051918252519081900360200190a4610bad8489611eea565b610bb688611fdf565b506001979650505050505050565b60015461010090046001600160a01b031681565b600033610be457600080fd5b3360009081526020819052604090205460ff16610c0057600080fd5b61ffff8216610c0e57600080fd5b506001805461ffff8316600160b01b0261ffff60b01b19909116178155919050565b600033610c3c57600080fd5b3360009081526020819052604090205460ff16610c5857600080fd5b6001805460ff1916905560405133907f8a5c4736a33c7b7f29a2c34ea9ff9608afc5718d56f6fd6dcbd2d3711a1a491390600090a25060015b90565b600033610ca057600080fd5b3360009081526020819052604090205460ff16610cbc57600080fd5b6001805460ff19168117905560405133907f4feb53e305297ab8fb8f3420c95ea04737addc254a7270d8fc4605d2b9c61dba90600090a250600190565b60025481565b6003546001600160a01b031681565b600154600160a81b900460ff1681565b600033610d2a57600080fd5b3360009081526020819052604090205460ff16610d4657600080fd5b50600180546001600160a01b03831661010002610100600160a81b0319909116178155919050565b600480546001908101918290556000918252600a6020526040822082913390820180546001600160a01b0319166001600160a01b03929092169190911790558e8160020180546001600160a01b0319166001600160a01b03929092169190911790558d8160030180546001600160a01b0319166001600160a01b03929092169190911790558c8160040180546001600160a01b0319166001600160a01b03929092169190911790558a600782016001015589600782016002015586601282016001602091828204019190066101000a81548160ff02191690831515021790555085816012016002600b8110610e5f57fe5b602091828204019190066101000a81548160ff02191690831515021790555084816012016000600b8110610e8f57fe5b602091828204019190066101000a81548160ff0219169083151502179055508415610f1557610ec4894363ffffffff611d6516565b600c82018d90559150610ed68f6120a2565b6011820160005b602091828204019190066101000a81548160ff021916908360ff16021790555081816007016004600a8110610f0e57fe5b0155611240565b83156111b15787610f66576040805162461bcd60e51b8152602060048201526016602482015275746f6b656e49642063616e6e6f74206265207a65726f60501b604482015290519081900360640190fd5b6000888152600a602052604090206012015460ff1615610fc6576040805162461bcd60e51b81526020600482015260166024820152750746f6b656e2063616e6e6f7420626520616e205246560541b604482015290519081900360640190fd5b6000888152600a60205260409020600101546001600160a01b03163314611030576040805162461bcd60e51b81526020600482015260196024820152781bdb9b1e481d1a19481a1bdb19195c8818d85b881cdc1b1a5d603a1b604482015290519081900360640190fd5b6000888152600a60205260409020600b01544310611092576040805162461bcd60e51b815260206004820152601a60248201527931b0b73737ba1039b83634ba1032bc3834b932b2103a37b5b2b760311b604482015290519081900360640190fd5b6000888152600b60208190526040909120015460ff16156110fa576040805162461bcd60e51b815260206004820152601d60248201527f63616e6e6f742073706c697420746f6b656e206f6e2061756374696f6e000000604482015290519081900360640190fd5b6000888152600a60205260409020601201546301000000900460ff1615611165576040805162461bcd60e51b815260206004820152601a60248201527931b0b73737ba1039b83634ba1031b632b0b932b2103a37b5b2b760311b604482015290519081900360640190fd5b6000888152600a60205260408120600b810154815484546001600160a01b0319166001600160a01b03909116178455600784018f905560119182015490945060ff169190830190610edd565b83156111ee5760405162461bcd60e51b815260040180806020018281038252602a8152602001806123f9602a913960400191505060405180910390fd5b6111fe894363ffffffff611d6516565b81546001600160a01b03191633178255600782018d905591506112208f6120a2565b60118201805460ff191660ff929092169190911790558160078201600401555b61124c336004546121d5565b60408051600480825260a0820190925260609160208201608080388339019050509050338160008151811061127d57fe5b60200260200101906001600160a01b031690816001600160a01b0316815250508f816001815181106112ab57fe5b60200260200101906001600160a01b031690816001600160a01b0316815250508e816002815181106112d957fe5b60200260200101906001600160a01b031690816001600160a01b0316815250508d8160038151811061130757fe5b6001600160a01b039092166020928302919091019091015260408051600580825260c082019092526060918160200160208202803883390190505090506004548160008151811061135457fe5b6020026020010181815250508d8160018151811061136e57fe5b6020026020010181815250508c8160028151811061138857fe5b6020026020010181815250508b816003815181106113a257fe5b60200260200101818152505083816004815181106113bc57fe5b60209081029190910101526040805160038082526080820190925260609181602001602082028038833901905050905089816000815181106113fa57fe5b602002602001019015159081151581525050888160018151811061141a57fe5b602002602001019015159081151581525050878160028151811061143a57fe5b6020026020010190151590811515815250507f79c04e36c28d806bb8719f8cd7394009de667536bd850da3d9b1f88536ba7a8583838360405180806020018060200180602001848103845287818151815260200191508051906020019060200280838360005b838110156114b85781810151838201526020016114a0565b50505050905001848103835286818151815260200191508051906020019060200280838360005b838110156114f75781810151838201526020016114df565b50505050905001848103825285818151815260200191508051906020019060200280838360005b8381101561153657818101518382015260200161151e565b50505050905001965050505050505060405180910390a16001955050505050509c9b505050505050505050505050565b60003361157257600080fd5b6000838152600a6020526040902060120154600160501b900460ff16156115dc576040805162461bcd60e51b8152602060048201526019602482015278185c989a5d1c985d1a5bdb881a185cc81859dc99595b595b9d603a1b604482015290519081900360640190fd5b6000838152600a60205260409020600b015443101561161a576000838152600a60205260409020601201546301000000900460ff1661161a57600080fd5b6000838152600a60205260409020805460018201546004909201546001600160a01b0391821692821691163382148061165b5750336001600160a01b038416145b8061166e5750336001600160a01b038216145b6116a95760405162461bcd60e51b81526004018080602001828103825260298152602001806123d06029913960400191505060405180910390fd5b336001600160a01b03831614156116fd576000868152600a6020526040808220600f8101889055601201805460ff60381b1916600160381b1790555186918891339160008051602061230a83398151915291a45b336001600160a01b0384161415611751576000868152600a6020526040808220600e8101889055601201805460ff60301b1916600160301b1790555186918891339160008051602061230a83398151915291a45b336001600160a01b03821614156117a5576000868152600a602052604080822060108101889055601201805460ff60401b1916600160401b1790555186918891339160008051602061230a83398151915291a45b6000868152600a6020526040902060120154600160301b900460ff1680156117e557506000868152600a6020526040902060120154600160381b900460ff165b8061182b57506000868152600a6020526040902060120154600160301b900460ff16801561182b57506000868152600a6020526040902060120154600160401b900460ff165b8061187157506000868152600a6020526040902060120154600160381b900460ff16801561187157506000868152600a6020526040902060120154600160401b900460ff165b156119a3576000868152600a60205260408120600f810154600e90910154829114806118b357506000888152600a602052604090206010810154600f90910154145b156118cf5750506000868152600a60205260409020600f015460015b6000888152600a602052604090206010810154600e9091015414156119055750506000868152600a60205260409020600e015460015b8015611995576000888152600a60208181526040928390206012810180549190930186905560ff60501b1916600160501b1763ff000000191663010000001790915581516001600160a01b0386168152915184928b9233927f5dcd55380bb21d96312136ea8ceddbf62271538a30e32bb24d1c6a9f88d5b63b9281900390910190a46001955050505050506119ab565b6000955050505050506119ab565b600093505050505b92915050565b60015460ff1681565b6000336119c657600080fd5b3360009081526020819052604090205460ff166119e257600080fd5b506001600160a01b03166000908152602081905260409020805460ff1916600190811790915590565b600033611a1757600080fd5b3360009081526020819052604090205460ff16611a3357600080fd5b506001600160a01b03166000908152602081905260409020805460ff19169055600190565b600033611a6457600080fd5b3360009081526020819052604090205460ff16611a8057600080fd5b506001805460ff8316600160a81b0260ff60a81b19909116178155919050565b60006001600160a01b038216611afd576040805162461bcd60e51b815260206004820152601e60248201527f6172626974657220616464726573732063616e6e6f74206265207a65726f0000604482015290519081900360640190fd5b6000838152600b60208190526040909120015460ff1615611b62576040805162461bcd60e51b815260206004820152601a6024820152793a37b5b2b71031b0b73737ba1031329037b71030bab1ba34b7b760311b604482015290519081900360640190fd5b6000838152600a60205260409020600181015490546001600160a01b03918216911633821480611b9a5750336001600160a01b038216145b611bd55760405162461bcd60e51b815260040180806020018281038252602f815260200180612351602f913960400191505060405180910390fd5b336001600160a01b0383161415611c28576000858152600a6020526040902060128101805460ff60281b1916600160281b17905560060180546001600160a01b0386166001600160a01b03199091161790555b336001600160a01b0382161415611c7b576000858152600a6020526040902060128101805460ff60201b1916600160201b17905560050180546001600160a01b0386166001600160a01b03199091161790555b6000858152600a6020526040902060120154600160281b900460ff168015611cbb57506000858152600a6020526040902060120154600160201b900460ff165b15611d5a576000858152600a6020526040902060058101546006909101546001600160a01b0390811691161415611d4f576000858152600a602052604080822060040180546001600160a01b0319166001600160a01b0388169081179091559051879233917fed242515ba1881ee5f014e0c11551aa69e7931c9f064a6d78c88906c07b5662c9190a46001925050506119ab565b6000925050506119ab565b506000949350505050565b600082820183811015611daa576040805162461bcd60e51b81526020600482015260086024820152670a6c2ccca9ac2e8d60c31b604482015290519081900360640190fd5b9392505050565b6000818152600a6020819052604082206012810154600982015492820154600883015460119093015460ff6201000090930483169493919216848015611df657508284115b15611e0e57611e0b848463ffffffff611ea216565b95505b84158015611e1b57508383115b15611e3357611e30838563ffffffff611ea216565b95505b611e6a6064611e5e84611e528a60ff8716600a0a63ffffffff61221316565b9063ffffffff61221316565b9063ffffffff61226d16565b979650505050505050565b6001546000908190611daa90600160b01b810461ffff1690611e5e908690600160a81b900460ff16612213565b600082821115611ee4576040805162461bcd60e51b81526020600482015260086024820152670a6c2ccca9ac2e8d60c31b604482015290519081900360640190fd5b50900390565b6001600160a01b038216600090815260086020526040812054611f1490600163ffffffff611ea216565b600083815260096020526040902054909150808214611faf576001600160a01b0384166000908152600860205260408120805484908110611f5157fe5b906000526020600020015490508060086000876001600160a01b03166001600160a01b031681526020019081526020016000208381548110611f8f57fe5b600091825260208083209091019290925591825260099052604090208190555b6001600160a01b0384166000908152600860205260409020805490611fd89060001983016122c2565b5050505050565b6000908152600a60208190526040822080546001600160a01b0319908116825560018201805482169055600282018054821690556003820180548216905560048201805482169055600582018054821690556006820180549091169055600781018390556008810183905560098101839055600b8101839055908101829055600c8101829055600d8101829055600e8101829055600f8101829055601081019190915560118101805461ffff1916905560120180546001600160581b0319169055565b60408051600481526024810182526020810180516001600160e01b031663313ce56760e01b1781529151815160009384936060936001600160a01b03881693919290918291908083835b6020831061210b5780518252601f1990920191602091820191016120ec565b6001836020036101000a0380198251168184511680821785525050505050509050019150506000604051808303816000865af19150503d806000811461216d576040519150601f19603f3d011682016040523d82523d6000602084013e612172565b606091505b5091509150816121b35760405162461bcd60e51b815260040180806020018281038252602b8152602001806123a5602b913960400191505060405180910390fd5b60008180602001905160208110156121ca57600080fd5b505195945050505050565b6001600160a01b0390911660009081526008602081815260408084208054868652600984529185208290559282526001810183559183529091200155565b600082612222575060006119ab565b8282028284828161222f57fe5b0414611daa576040805162461bcd60e51b81526020600482015260086024820152670a6c2ccca9ac2e8d60c31b604482015290519081900360640190fd5b60008082116122ae576040805162461bcd60e51b81526020600482015260086024820152670a6c2ccca9ac2e8d60c31b604482015290519081900360640190fd5b60008284816122b957fe5b04949350505050565b8154818355818111156122e6576000838152602090206122e69181019083016122eb565b505050565b610c9191905b8082111561230557600081556001016122f1565b509056fe753ea8d69d7d6b1f4d50c3fad4b7198d77bc061bcda3d58b777be0b28dc9b61861726269746572207365742c206c6f636b656420666f7220636f6f6c646f776e20706572696f646f6e6c7920777269746572206f7220686f6c6465722063616e2070726f706f73652061206e6577206172626974657261756374696f6e20696e2070726f63657373206f66206265696e6720736174697366696564636f6e747261637420646f6573206e6f742070726f7065726c79207370656369667920646563696d616c7373656e646572206d75737420626520686f6c6465722c207772697465722c206f72206172626974657273706c69742063616e6e6f742062652074727565207768656e206372656174696e672061207069676779a265627a7a723158206943639a540cb5d9643560434613ecd85e0fe8313e80a44f60e004acff05bef164736f6c63430005110032",
  "source": "/**\n *  This is a helper contract for the SmartPiggies contract\n *  to relieve pressure from the codesize limit\n */\npragma solidity 0.5.17;\n\nimport \"./SafeMath.sol\";\n\n\ncontract Administered {\n  mapping(address => bool) private administrators;\n  constructor(address _admin) public {\n    administrators[_admin] = true;\n  }\n\n  modifier onlyAdmin() {\n    // admin is an administrator of the contact\n    require(msg.sender != address(0));\n    require(administrators[msg.sender]);\n    _;\n  }\n\n  function isAdministrator(address _admin)\n    public\n    view\n    returns (bool)\n  {\n    return administrators[_admin];\n  }\n\n  function addAdministrator(address _newAdmin)\n    public\n    onlyAdmin\n    returns (bool)\n  {\n    administrators[_newAdmin] = true;\n    return true;\n  }\n\n  function deleteAdministrator(address _admin)\n    public\n    onlyAdmin\n    returns (bool)\n  {\n    administrators[_admin] = false;\n    return true;\n  }\n}\n\n\ncontract Freezable is Administered {\n  bool public notFrozen;\n  constructor() public {\n    notFrozen = true;\n  }\n\n  event Frozen(address indexed from);\n  event Unfrozen(address indexed from);\n\n  modifier whenNotFrozen() {\n  require(notFrozen, \"contract frozen\");\n  _;\n  }\n\n  function freeze()\n    public\n    onlyAdmin\n    returns (bool)\n  {\n    notFrozen = false;\n    emit Frozen(msg.sender);\n    return true;\n  }\n\n  function unfreeze()\n    public\n    onlyAdmin\n    returns (bool)\n  {\n    notFrozen = true;\n    emit Unfrozen(msg.sender);\n    return true;\n  }\n}\n\n\ncontract Serviced is Freezable {\n  using SafeMath for uint256;\n\n  address payable public feeAddress;\n  uint8   public feePercent;\n  uint16  public feeResolution;\n\n  constructor(address payable _feeAddress)\n    public\n  {\n    feeAddress = _feeAddress;\n    feePercent = 50;\n    feeResolution = 10**4;\n  }\n\n  function setFeeAddress(address payable _newAddress)\n    public\n    onlyAdmin\n    returns (bool)\n  {\n    feeAddress = _newAddress;\n    return true;\n  }\n\n  function setFeePercent(uint8 _newFee)\n    public\n    onlyAdmin\n    returns (bool)\n  {\n    feePercent = _newFee;\n    return true;\n  }\n\n  function setFeeResolution(uint16 _newResolution)\n    public\n    onlyAdmin\n    returns (bool)\n  {\n    require(_newResolution != 0);\n    feeResolution = _newResolution;\n    return true;\n  }\n\n  function _getFee(uint256 _value)\n    internal\n    view\n    returns (uint256)\n  {\n    uint256 fee = _value.mul(feePercent).div(feeResolution);\n    return fee;\n  }\n}\n\n\ncontract PiggyHelper is Serviced {\n  //maintain storage layout of SmartPiggies contract\n  uint256 public cooldown;\n  address public helperAddress; // Smart Helper contract address in SmartPiggies slot\n  enum RequestType { Bid, Settlement }\n  bytes32 constant RTN_FALSE = bytes32(0x0000000000000000000000000000000000000000000000000000000000000000);\n  bytes32 constant TX_SUCCESS = bytes32(0x0000000000000000000000000000000000000000000000000000000000000001);\n  uint256 public tokenId;\n\n  uint256 private _guardCounter;\n\n  mapping (address => mapping(address => uint256)) private ERC20balances;\n  mapping (address => uint256) private bidBalances;\n  mapping (address => uint256[]) private ownedPiggies;\n  mapping (uint256 => uint256) private ownedPiggiesIndex;\n  mapping (uint256 => Piggy) private piggies;\n  mapping (uint256 => DetailAuction) private auctions;\n\n  struct DetailAuction {\n    uint256[10] details;\n    address activeBidder;\n    uint8 rfpNonce;\n    bool[4] flags;\n  }\n\n  struct Piggy {\n    address[7] addresses; // address details\n    uint256[10] uintDetails; // number details\n    uint8[2] counters;\n    bool[11] flags; // parameter switches\n  }\n\n  event CreatePiggy(\n    address[] addresses,\n    uint256[] ints,\n    bool[] bools\n  );\n\n  event UpdateRFP(\n    address indexed from,\n    uint256 indexed tokenId,\n    uint8 indexed rfpNonce,\n    address collateralERC,\n    address dataResolver,\n    address arbiter,\n    uint256 reqCollateral,\n    uint256 lotSize,\n    uint256 strikePrice,\n    uint256 expiry,\n    bool isEuro,\n    bool isPut\n  );\n\n  event SettlePiggy(\n   address indexed from,\n   uint256 indexed tokenId,\n   uint256 indexed holderPayout,\n   uint256 writerPayout\n  );\n\n  event ArbiterSet(\n    address indexed from,\n    address indexed arbiter,\n    uint256 indexed tokenId\n  );\n\n  event PriceProposed(\n    address indexed from,\n    uint256 indexed tokenId,\n    uint256 indexed proposedPrice\n  );\n\n  event ArbiterSettled(\n    address indexed from,\n    address arbiter,\n    uint256 indexed tokenId,\n    uint256 indexed exercisePrice\n  );\n\n  constructor()\n    public\n    Administered(msg.sender)\n    Serviced(msg.sender)\n  {\n    _guardCounter = 1;\n  }\n\n  // Creation\n\n  function updateRFP(\n    uint256 _tokenId,\n    address _collateralERC,\n    address _dataResolver,\n    address _arbiter,\n    uint256 _reqCollateral,\n    uint256 _lotSize,\n    uint256 _strikePrice,\n    uint256 _expiry,\n    bool _isEuro,  // MUST be specified\n    bool _isPut    // MUST be specified\n  )\n    public\n    whenNotFrozen\n    returns (bool)\n  {\n    require(piggies[_tokenId].addresses[1] == msg.sender, \"sender must be the holder\");\n    require(piggies[_tokenId].flags[0], \"you can only update an RFP\");\n    require(!auctions[_tokenId].flags[3], \"auction in process of being satisfied\");\n    uint256 expiryBlock;\n    if (_collateralERC != address(0)) {\n      piggies[_tokenId].addresses[2] = _collateralERC;\n    }\n    if (_dataResolver != address(0)) {\n      piggies[_tokenId].addresses[3] = _dataResolver;\n    }\n    if (_arbiter != address(0)) {\n      piggies[_tokenId].addresses[4] = _arbiter;\n    }\n    if (_reqCollateral != 0) {\n      piggies[_tokenId].uintDetails[5] = _reqCollateral;\n    }\n    if (_lotSize != 0) {\n      piggies[_tokenId].uintDetails[1] = _lotSize;\n    }\n    if (_strikePrice != 0 ) {\n      piggies[_tokenId].uintDetails[2] = _strikePrice;\n    }\n    if (_expiry != 0) {\n      // recalculate expiry calculation\n      expiryBlock = _expiry.add(block.number);\n      piggies[_tokenId].uintDetails[4] = expiryBlock;\n    }\n    // Both must be specified\n    piggies[_tokenId].flags[1] = _isEuro;\n    piggies[_tokenId].flags[2] = _isPut;\n\n    // increment update nonce\n    // protects fulfiller from auction front running\n    ++piggies[_tokenId].counters[1];\n\n    emit UpdateRFP(\n      msg.sender,\n      _tokenId,\n      piggies[_tokenId].counters[1],\n      _collateralERC,\n      _dataResolver,\n      _arbiter,\n      _reqCollateral,\n      _lotSize,\n      _strikePrice,\n      expiryBlock,\n      _isEuro,\n      _isPut\n    );\n\n    return true;\n  }\n\n  // Auctions\n\n\n\n  // Settlement\n\n  function settlePiggy(uint256 _tokenId)\n    public\n    returns (bool)\n  {\n    require(msg.sender != address(0));\n    require(_tokenId != 0, \"tokenId cannot be zero\");\n    // require a settlement price to be returned from an oracle\n    require(piggies[_tokenId].flags[3], \"piggy is not cleared\");\n\n    // check if arbitratin is set, cooldown has passed\n    if (piggies[_tokenId].addresses[4] != address(0)) {\n     require(piggies[_tokenId].uintDetails[6] <= block.number, \"arbiter set, locked for cooldown period\");\n    }\n\n    uint256 payout;\n\n    if(piggies[_tokenId].flags[1]) {\n     require(piggies[_tokenId].uintDetails[4] <= block.number, \"european must be expired\");\n    }\n    payout = _calculateLongPayout(_tokenId);\n\n    // set the balances of the two counterparties based on the payout\n    address _writer = piggies[_tokenId].addresses[0];\n    address _holder = piggies[_tokenId].addresses[1];\n    address _collateralERC = piggies[_tokenId].addresses[2];\n\n    uint256 collateral = piggies[_tokenId].uintDetails[0];\n    if (payout > collateral) {\n     payout = collateral;\n    }\n    // extract the service fee\n    uint256 fee = _getFee(payout);\n    ERC20balances[feeAddress][_collateralERC] = ERC20balances[feeAddress][_collateralERC].add(fee);\n    ERC20balances[_holder][_collateralERC] = ERC20balances[_holder][_collateralERC].add(payout).sub(fee);\n    ERC20balances[_writer][_collateralERC] = ERC20balances[_writer][_collateralERC].add(collateral).sub(payout);\n\n    emit SettlePiggy(\n     msg.sender,\n     _tokenId,\n     payout.sub(fee),\n     piggies[_tokenId].uintDetails[0].sub(payout)\n    );\n\n    _removeTokenFromOwnedPiggies(_holder, _tokenId);\n    // clean up piggyId\n    _resetPiggy(_tokenId);\n    return true;\n  }\n\n  // Arbitration\n\n  function updateArbiter(uint256 _tokenId, address _newArbiter)\n    public\n    returns (bool)\n  {\n    require(_newArbiter != address(0), \"arbiter address cannot be zero\");\n    require(!auctions[_tokenId].flags[0], \"token cannot be on auction\");\n    address _holder = piggies[_tokenId].addresses[1];\n    address _writer = piggies[_tokenId].addresses[0];\n    require(msg.sender == _holder || msg.sender == _writer, \"only writer or holder can propose a new arbiter\");\n    if (msg.sender == _holder) {\n      piggies[_tokenId].flags[5] = true;\n      piggies[_tokenId].addresses[6] = _newArbiter;\n    }\n    if (msg.sender == _writer) {\n      piggies[_tokenId].flags[4] = true;\n      piggies[_tokenId].addresses[5] = _newArbiter;\n    }\n    if (piggies[_tokenId].flags[5] && piggies[_tokenId].flags[4]) {\n      if (piggies[_tokenId].addresses[6] == piggies[_tokenId].addresses[5]) {\n        piggies[_tokenId].addresses[4] = _newArbiter;\n        emit ArbiterSet(msg.sender, _newArbiter, _tokenId);\n        return true;\n      } else {\n        // new arbiter address did not match\n        return false;\n      }\n    }\n    // missing a proposal from one party\n    return false;\n  }\n\n  function thirdPartyArbitrationSettlement(uint256 _tokenId, uint256 _proposedPrice)\n    public\n    returns (bool)\n  {\n    // make sure address can't call as an unset arbiter\n    require(msg.sender != address(0));\n    // require that arbitration has not received agreement\n    require(!piggies[_tokenId].flags[10], \"arbitration has agreement\");\n    // if piggy did not cleared a price, i.e. oracle didn't return\n    // require that piggy is expired to settle via arbitration\n    if(block.number < piggies[_tokenId].uintDetails[4]) {\n      require(piggies[_tokenId].flags[3]);\n    }\n\n    // set internal address references for convenience\n    address _writer = piggies[_tokenId].addresses[0];\n    address _holder = piggies[_tokenId].addresses[1];\n    address _arbiter = piggies[_tokenId].addresses[4];\n\n    // check which party the sender is (of the 3 valid ones, else fail)\n    require(msg.sender == _holder || msg.sender == _writer || msg.sender == _arbiter, \"sender must be holder, writer, or arbiter\");\n\n    // set flag for proposed share for that party\n    if (msg.sender == _holder) {\n      piggies[_tokenId].uintDetails[8] = _proposedPrice;\n      piggies[_tokenId].flags[7] = true;\n      emit PriceProposed(msg.sender, _tokenId, _proposedPrice);\n    }\n    if (msg.sender == _writer) {\n      piggies[_tokenId].uintDetails[7] = _proposedPrice;\n      piggies[_tokenId].flags[6] = true;\n      emit PriceProposed(msg.sender, _tokenId, _proposedPrice);\n    }\n    if (msg.sender == _arbiter) {\n      piggies[_tokenId].uintDetails[9] = _proposedPrice;\n      piggies[_tokenId].flags[8] = true;\n      emit PriceProposed(msg.sender, _tokenId, _proposedPrice);\n    }\n\n    // see if 2 of 3 parties have proposed a share\n    if (piggies[_tokenId].flags[6] && piggies[_tokenId].flags[7] ||\n      piggies[_tokenId].flags[6] && piggies[_tokenId].flags[8] ||\n      piggies[_tokenId].flags[7] && piggies[_tokenId].flags[8])\n    {\n      // if so, see if 2 of 3 parties have proposed the same amount\n      uint256 _settlementPrice = 0;\n      bool _agreement = false;\n      // check if holder has gotten agreement with either other party\n      if (piggies[_tokenId].uintDetails[7] == piggies[_tokenId].uintDetails[8] ||\n        piggies[_tokenId].uintDetails[8] == piggies[_tokenId].uintDetails[9])\n      {\n        _settlementPrice = piggies[_tokenId].uintDetails[8];\n        _agreement = true;\n      }\n\n      // check if the two non-holder parties agree\n      if (piggies[_tokenId].uintDetails[7] == piggies[_tokenId].uintDetails[9])\n      {\n        _settlementPrice = piggies[_tokenId].uintDetails[7];\n        _agreement = true;\n      }\n\n      if (_agreement) {\n        // arbitration has come to an agreement\n        piggies[_tokenId].flags[10] = true;\n        // update settlement price\n        piggies[_tokenId].uintDetails[3] = _settlementPrice;\n        piggies[_tokenId].flags[3] = true;\n        // emit settlement event\n        emit ArbiterSettled(msg.sender, _arbiter, _tokenId, _settlementPrice);\n\n        return (true);\n      } else {\n        // no agreement\n        return false;\n      }\n    }\n    // 2 of 3 have not proposed\n    return false;\n  }\n\n  function _constructPiggy(\n    address _collateralERC,\n    address _dataResolver,\n    address _arbiter,\n    uint256 _collateral,\n    uint256 _lotSize,\n    uint256 _strikePrice,\n    uint256 _expiry,\n    uint256 _splitTokenId,\n    bool _isEuro,\n    bool _isPut,\n    bool _isRequest,\n    bool _isSplit\n  )\n    public\n    returns (bool)\n  {\n    // assuming all checks have passed:\n    uint256 tokenExpiry;\n    // tokenId should be allowed to overflow\n    ++tokenId;\n\n    // write the values to storage, including _isRequest flag\n    Piggy storage p = piggies[tokenId];\n    p.addresses[1] = msg.sender;\n    p.addresses[2] = _collateralERC;\n    p.addresses[3] = _dataResolver;\n    p.addresses[4] = _arbiter;\n    p.uintDetails[1] = _lotSize;\n    p.uintDetails[2] = _strikePrice;\n    p.flags[1] = _isEuro;\n    p.flags[2] = _isPut;\n    p.flags[0] = _isRequest;\n\n    // conditional state variable assignments based on _isRequest:\n    if (_isRequest) {\n      tokenExpiry = _expiry.add(block.number);\n      p.uintDetails[5] = _collateral;\n      p.counters[0] = _getERC20Decimals(_collateralERC);\n      p.uintDetails[4] = tokenExpiry;\n    } else if (_isSplit) {\n      require(_splitTokenId != 0, \"tokenId cannot be zero\");\n      require(!piggies[_splitTokenId].flags[0], \"token cannot be an RFP\");\n      require(piggies[_splitTokenId].addresses[1] == msg.sender, \"only the holder can split\");\n      require(block.number < piggies[_splitTokenId].uintDetails[4], \"cannot split expired token\");\n      require(!auctions[_splitTokenId].flags[0], \"cannot split token on auction\");\n      require(!piggies[_splitTokenId].flags[3], \"cannot split cleared token\");\n      tokenExpiry = piggies[_splitTokenId].uintDetails[4];\n      p.addresses[0] = piggies[_splitTokenId].addresses[0];\n      p.uintDetails[0] = _collateral;\n      p.counters[0] = piggies[_splitTokenId].counters[0];\n      p.uintDetails[4] = tokenExpiry;\n    } else {\n      require(!_isSplit, \"split cannot be true when creating a piggy\");\n      tokenExpiry = _expiry.add(block.number);\n      p.addresses[0] = msg.sender;\n      p.uintDetails[0] = _collateral;\n      p.counters[0] = _getERC20Decimals(_collateralERC);\n      p.uintDetails[4] = tokenExpiry;\n    }\n\n    _addTokenToOwnedPiggies(msg.sender, tokenId);\n\n    address[] memory a = new address[](4);\n    a[0] = msg.sender;\n    a[1] = _collateralERC;\n    a[2] = _dataResolver;\n    a[3] = _arbiter;\n\n    uint256[] memory i = new uint256[](5);\n    i[0] = tokenId;\n    i[1] = _collateral;\n    i[2] = _lotSize;\n    i[3] = _strikePrice;\n    i[4] = tokenExpiry;\n\n    bool[] memory b = new bool[](3);\n    b[0] = _isEuro;\n    b[1] = _isPut;\n    b[2] = _isRequest;\n\n    emit CreatePiggy(\n      a,\n      i,\n      b\n    );\n\n    return true;\n  }\n\n  function _getERC20Decimals(address _ERC20)\n    internal\n    returns (uint8)\n  {\n    // *** warning untrusted function call ***\n    (bool success, bytes memory _decBytes) = address(_ERC20).call(\n        abi.encodeWithSignature(\"decimals()\")\n      );\n     require(success, \"contract does not properly specify decimals\");\n     /**\n         allow for uint256 range of decimals,\n         if token contract saves decimals as uint256\n         accept uint256 value.\n         Cast return value before return to force uint8 spec\n      */\n     uint256 _ERCdecimals = abi.decode(_decBytes, (uint256));\n     return uint8(_ERCdecimals); // explicit cast, possible loss of resolution\n  }\n\n  function _calculateLongPayout(uint256 _tokenId)\n    internal\n    view\n    returns (uint256 _payout)\n  {\n    bool _isPut = piggies[_tokenId].flags[2];\n    uint256 _strikePrice = piggies[_tokenId].uintDetails[2];\n    uint256 _exercisePrice = piggies[_tokenId].uintDetails[3];\n    uint256 _lotSize = piggies[_tokenId].uintDetails[1];\n    uint8 _decimals = piggies[_tokenId].counters[0];\n\n    if (_isPut && (_strikePrice > _exercisePrice)) {\n      _payout = _strikePrice.sub(_exercisePrice);\n    }\n    if (!_isPut && (_exercisePrice > _strikePrice)) {\n      _payout = _exercisePrice.sub(_strikePrice);\n    }\n    _payout = _payout.mul(10**uint256(_decimals)).mul(_lotSize).div(100);\n    return _payout;\n  }\n\n  function _addTokenToOwnedPiggies(address _to, uint256 _tokenId)\n    private\n  {\n    ownedPiggiesIndex[_tokenId] = ownedPiggies[_to].length;\n    ownedPiggies[_to].push(_tokenId);\n  }\n\n  function _removeTokenFromOwnedPiggies(address _from, uint256 _tokenId)\n    private\n  {\n    uint256 lastTokenIndex = ownedPiggies[_from].length.sub(1);\n    uint256 tokenIndex = ownedPiggiesIndex[_tokenId];\n\n    if (tokenIndex != lastTokenIndex) {\n      uint256 lastTokenId = ownedPiggies[_from][lastTokenIndex];\n      ownedPiggies[_from][tokenIndex] = lastTokenId;\n      ownedPiggiesIndex[lastTokenId] = tokenIndex;\n    }\n    ownedPiggies[_from].length--;\n  }\n\n  function _resetPiggy(uint256 _tokenId)\n    private\n  {\n    piggies[_tokenId].addresses[0] = address(0);\n    piggies[_tokenId].addresses[1] = address(0);\n    piggies[_tokenId].addresses[2] = address(0);\n    piggies[_tokenId].addresses[3] = address(0);\n    piggies[_tokenId].addresses[4] = address(0);\n    piggies[_tokenId].addresses[5] = address(0);\n    piggies[_tokenId].addresses[6] = address(0);\n    piggies[_tokenId].uintDetails[0] = 0;\n    piggies[_tokenId].uintDetails[1] = 0;\n    piggies[_tokenId].uintDetails[2] = 0;\n    piggies[_tokenId].uintDetails[4] = 0;\n    piggies[_tokenId].uintDetails[3] = 0;\n    piggies[_tokenId].uintDetails[5] = 0;\n    piggies[_tokenId].uintDetails[6] = 0;\n    piggies[_tokenId].uintDetails[7] = 0;\n    piggies[_tokenId].uintDetails[8] = 0;\n    piggies[_tokenId].uintDetails[9] = 0;\n    piggies[_tokenId].counters[0] = 0;\n    piggies[_tokenId].counters[1] = 0;\n    piggies[_tokenId].flags[0] = false;\n    piggies[_tokenId].flags[1] = false;\n    piggies[_tokenId].flags[2] = false;\n    piggies[_tokenId].flags[3] = false;\n    piggies[_tokenId].flags[4] = false;\n    piggies[_tokenId].flags[5] = false;\n    piggies[_tokenId].flags[6] = false;\n    piggies[_tokenId].flags[7] = false;\n    piggies[_tokenId].flags[8] = false;\n    piggies[_tokenId].flags[9] = false;\n    piggies[_tokenId].flags[10] = false;\n  }\n}\n",
  "sourcePath": "/home/vagrant/DAPPS/smartpiggiesGithub/smartpiggiesV1.5/contracts/PiggyHelper.sol",
  "compiler": {
    "name": "solc",
    "version": "0.5.17+commit.d19bba13.Emscripten.clang"
  },
  "schemaVersion": "3.2.0",
  "updatedAt": "2020-05-27T07:23:41.050Z",
  "devdoc": {
    "methods": {}
  },
  "userdoc": {
    "methods": {}
  }
}