{
  "contractName": "PiggyHelper",
  "abi": [
    {
      "inputs": [],
      "payable": false,
      "stateMutability": "nonpayable",
      "type": "constructor"
    },
    {
      "anonymous": false,
      "inputs": [
        {
          "indexed": true,
          "internalType": "address",
          "name": "from",
          "type": "address"
        },
        {
          "indexed": true,
          "internalType": "address",
          "name": "newAdmin",
          "type": "address"
        }
      ],
      "name": "AddedAdmin",
      "type": "event"
    },
    {
      "anonymous": false,
      "inputs": [
        {
          "indexed": true,
          "internalType": "address",
          "name": "from",
          "type": "address"
        },
        {
          "indexed": true,
          "internalType": "address",
          "name": "arbiter",
          "type": "address"
        },
        {
          "indexed": true,
          "internalType": "uint256",
          "name": "tokenId",
          "type": "uint256"
        }
      ],
      "name": "ArbiterSet",
      "type": "event"
    },
    {
      "anonymous": false,
      "inputs": [
        {
          "indexed": true,
          "internalType": "address",
          "name": "from",
          "type": "address"
        },
        {
          "indexed": false,
          "internalType": "address",
          "name": "arbiter",
          "type": "address"
        },
        {
          "indexed": true,
          "internalType": "uint256",
          "name": "tokenId",
          "type": "uint256"
        },
        {
          "indexed": true,
          "internalType": "uint256",
          "name": "exercisePrice",
          "type": "uint256"
        }
      ],
      "name": "ArbiterSettled",
      "type": "event"
    },
    {
      "anonymous": false,
      "inputs": [
        {
          "indexed": true,
          "internalType": "address",
          "name": "from",
          "type": "address"
        },
        {
          "indexed": true,
          "internalType": "address",
          "name": "newOwner",
          "type": "address"
        }
      ],
      "name": "ChangedOwner",
      "type": "event"
    },
    {
      "anonymous": false,
      "inputs": [
        {
          "indexed": false,
          "internalType": "address[]",
          "name": "addresses",
          "type": "address[]"
        },
        {
          "indexed": false,
          "internalType": "uint256[]",
          "name": "ints",
          "type": "uint256[]"
        },
        {
          "indexed": false,
          "internalType": "bool[]",
          "name": "bools",
          "type": "bool[]"
        }
      ],
      "name": "CreatePiggy",
      "type": "event"
    },
    {
      "anonymous": false,
      "inputs": [
        {
          "indexed": true,
          "internalType": "address",
          "name": "from",
          "type": "address"
        },
        {
          "indexed": true,
          "internalType": "address",
          "name": "oldAdmin",
          "type": "address"
        }
      ],
      "name": "DeletedAdmin",
      "type": "event"
    },
    {
      "anonymous": false,
      "inputs": [
        {
          "indexed": true,
          "internalType": "address",
          "name": "from",
          "type": "address"
        },
        {
          "indexed": true,
          "internalType": "address",
          "name": "newAddress",
          "type": "address"
        }
      ],
      "name": "FeeAddressSet",
      "type": "event"
    },
    {
      "anonymous": false,
      "inputs": [
        {
          "indexed": true,
          "internalType": "address",
          "name": "from",
          "type": "address"
        },
        {
          "indexed": true,
          "internalType": "uint8",
          "name": "newFee",
          "type": "uint8"
        }
      ],
      "name": "FeeSet",
      "type": "event"
    },
    {
      "anonymous": false,
      "inputs": [
        {
          "indexed": true,
          "internalType": "address",
          "name": "from",
          "type": "address"
        }
      ],
      "name": "Frozen",
      "type": "event"
    },
    {
      "anonymous": false,
      "inputs": [
        {
          "indexed": true,
          "internalType": "address",
          "name": "from",
          "type": "address"
        },
        {
          "indexed": true,
          "internalType": "uint256",
          "name": "tokenId",
          "type": "uint256"
        },
        {
          "indexed": true,
          "internalType": "uint256",
          "name": "proposedPrice",
          "type": "uint256"
        }
      ],
      "name": "PriceProposed",
      "type": "event"
    },
    {
      "anonymous": false,
      "inputs": [
        {
          "indexed": true,
          "internalType": "address",
          "name": "from",
          "type": "address"
        },
        {
          "indexed": false,
          "internalType": "uint16",
          "name": "newResolution",
          "type": "uint16"
        }
      ],
      "name": "ResolutionSet",
      "type": "event"
    },
    {
      "anonymous": false,
      "inputs": [
        {
          "indexed": true,
          "internalType": "address",
          "name": "from",
          "type": "address"
        },
        {
          "indexed": true,
          "internalType": "uint256",
          "name": "tokenId",
          "type": "uint256"
        },
        {
          "indexed": true,
          "internalType": "uint256",
          "name": "holderPayout",
          "type": "uint256"
        },
        {
          "indexed": false,
          "internalType": "uint256",
          "name": "writerPayout",
          "type": "uint256"
        }
      ],
      "name": "SettlePiggy",
      "type": "event"
    },
    {
      "anonymous": false,
      "inputs": [
        {
          "indexed": true,
          "internalType": "address",
          "name": "from",
          "type": "address"
        }
      ],
      "name": "Unfrozen",
      "type": "event"
    },
    {
      "anonymous": false,
      "inputs": [
        {
          "indexed": true,
          "internalType": "address",
          "name": "from",
          "type": "address"
        },
        {
          "indexed": true,
          "internalType": "uint256",
          "name": "tokenId",
          "type": "uint256"
        },
        {
          "indexed": true,
          "internalType": "uint8",
          "name": "rfpNonce",
          "type": "uint8"
        },
        {
          "indexed": false,
          "internalType": "address",
          "name": "collateralERC",
          "type": "address"
        },
        {
          "indexed": false,
          "internalType": "address",
          "name": "dataResolver",
          "type": "address"
        },
        {
          "indexed": false,
          "internalType": "address",
          "name": "arbiter",
          "type": "address"
        },
        {
          "indexed": false,
          "internalType": "uint256",
          "name": "reqCollateral",
          "type": "uint256"
        },
        {
          "indexed": false,
          "internalType": "uint256",
          "name": "lotSize",
          "type": "uint256"
        },
        {
          "indexed": false,
          "internalType": "uint256",
          "name": "strikePrice",
          "type": "uint256"
        },
        {
          "indexed": false,
          "internalType": "uint256",
          "name": "expiry",
          "type": "uint256"
        },
        {
          "indexed": false,
          "internalType": "bool",
          "name": "isEuro",
          "type": "bool"
        },
        {
          "indexed": false,
          "internalType": "bool",
          "name": "isPut",
          "type": "bool"
        }
      ],
      "name": "UpdateRFP",
      "type": "event"
    },
    {
      "constant": false,
      "inputs": [
        {
          "internalType": "address",
          "name": "_newAdmin",
          "type": "address"
        }
      ],
      "name": "addAdministrator",
      "outputs": [
        {
          "internalType": "bool",
          "name": "",
          "type": "bool"
        }
      ],
      "payable": false,
      "stateMutability": "nonpayable",
      "type": "function"
    },
    {
      "constant": false,
      "inputs": [
        {
          "internalType": "address payable",
          "name": "_newOwner",
          "type": "address"
        }
      ],
      "name": "changeOwner",
      "outputs": [
        {
          "internalType": "bool",
          "name": "",
          "type": "bool"
        }
      ],
      "payable": false,
      "stateMutability": "nonpayable",
      "type": "function"
    },
    {
      "constant": true,
      "inputs": [],
      "name": "cooldown",
      "outputs": [
        {
          "internalType": "uint256",
          "name": "",
          "type": "uint256"
        }
      ],
      "payable": false,
      "stateMutability": "view",
      "type": "function"
    },
    {
      "constant": false,
      "inputs": [
        {
          "internalType": "address",
          "name": "_admin",
          "type": "address"
        }
      ],
      "name": "deleteAdministrator",
      "outputs": [
        {
          "internalType": "bool",
          "name": "",
          "type": "bool"
        }
      ],
      "payable": false,
      "stateMutability": "nonpayable",
      "type": "function"
    },
    {
      "constant": true,
      "inputs": [],
      "name": "feeAddress",
      "outputs": [
        {
          "internalType": "address payable",
          "name": "",
          "type": "address"
        }
      ],
      "payable": false,
      "stateMutability": "view",
      "type": "function"
    },
    {
      "constant": true,
      "inputs": [],
      "name": "feePercent",
      "outputs": [
        {
          "internalType": "uint8",
          "name": "",
          "type": "uint8"
        }
      ],
      "payable": false,
      "stateMutability": "view",
      "type": "function"
    },
    {
      "constant": true,
      "inputs": [],
      "name": "feeResolution",
      "outputs": [
        {
          "internalType": "uint16",
          "name": "",
          "type": "uint16"
        }
      ],
      "payable": false,
      "stateMutability": "view",
      "type": "function"
    },
    {
      "constant": false,
      "inputs": [],
      "name": "freeze",
      "outputs": [
        {
          "internalType": "bool",
          "name": "",
          "type": "bool"
        }
      ],
      "payable": false,
      "stateMutability": "nonpayable",
      "type": "function"
    },
    {
      "constant": true,
      "inputs": [],
      "name": "helperAddress",
      "outputs": [
        {
          "internalType": "address",
          "name": "",
          "type": "address"
        }
      ],
      "payable": false,
      "stateMutability": "view",
      "type": "function"
    },
    {
      "constant": true,
      "inputs": [
        {
          "internalType": "address",
          "name": "_admin",
          "type": "address"
        }
      ],
      "name": "isAdministrator",
      "outputs": [
        {
          "internalType": "bool",
          "name": "",
          "type": "bool"
        }
      ],
      "payable": false,
      "stateMutability": "view",
      "type": "function"
    },
    {
      "constant": true,
      "inputs": [],
      "name": "notFrozen",
      "outputs": [
        {
          "internalType": "bool",
          "name": "",
          "type": "bool"
        }
      ],
      "payable": false,
      "stateMutability": "view",
      "type": "function"
    },
    {
      "constant": true,
      "inputs": [],
      "name": "owner",
      "outputs": [
        {
          "internalType": "address payable",
          "name": "",
          "type": "address"
        }
      ],
      "payable": false,
      "stateMutability": "view",
      "type": "function"
    },
    {
      "constant": false,
      "inputs": [
        {
          "internalType": "address payable",
          "name": "_newAddress",
          "type": "address"
        }
      ],
      "name": "setFeeAddress",
      "outputs": [
        {
          "internalType": "bool",
          "name": "",
          "type": "bool"
        }
      ],
      "payable": false,
      "stateMutability": "nonpayable",
      "type": "function"
    },
    {
      "constant": false,
      "inputs": [
        {
          "internalType": "uint8",
          "name": "_newFee",
          "type": "uint8"
        }
      ],
      "name": "setFeePercent",
      "outputs": [
        {
          "internalType": "bool",
          "name": "",
          "type": "bool"
        }
      ],
      "payable": false,
      "stateMutability": "nonpayable",
      "type": "function"
    },
    {
      "constant": false,
      "inputs": [
        {
          "internalType": "uint16",
          "name": "_newResolution",
          "type": "uint16"
        }
      ],
      "name": "setFeeResolution",
      "outputs": [
        {
          "internalType": "bool",
          "name": "",
          "type": "bool"
        }
      ],
      "payable": false,
      "stateMutability": "nonpayable",
      "type": "function"
    },
    {
      "constant": true,
      "inputs": [],
      "name": "tokenId",
      "outputs": [
        {
          "internalType": "uint256",
          "name": "",
          "type": "uint256"
        }
      ],
      "payable": false,
      "stateMutability": "view",
      "type": "function"
    },
    {
      "constant": false,
      "inputs": [],
      "name": "unfreeze",
      "outputs": [
        {
          "internalType": "bool",
          "name": "",
          "type": "bool"
        }
      ],
      "payable": false,
      "stateMutability": "nonpayable",
      "type": "function"
    },
    {
      "constant": false,
      "inputs": [
        {
          "internalType": "uint256",
          "name": "_tokenId",
          "type": "uint256"
        },
        {
          "internalType": "address",
          "name": "_collateralERC",
          "type": "address"
        },
        {
          "internalType": "address",
          "name": "_dataResolver",
          "type": "address"
        },
        {
          "internalType": "address",
          "name": "_arbiter",
          "type": "address"
        },
        {
          "internalType": "uint256",
          "name": "_reqCollateral",
          "type": "uint256"
        },
        {
          "internalType": "uint256",
          "name": "_lotSize",
          "type": "uint256"
        },
        {
          "internalType": "uint256",
          "name": "_strikePrice",
          "type": "uint256"
        },
        {
          "internalType": "uint256",
          "name": "_expiry",
          "type": "uint256"
        },
        {
          "internalType": "bool",
          "name": "_isEuro",
          "type": "bool"
        },
        {
          "internalType": "bool",
          "name": "_isPut",
          "type": "bool"
        }
      ],
      "name": "updateRFP",
      "outputs": [
        {
          "internalType": "bool",
          "name": "",
          "type": "bool"
        }
      ],
      "payable": false,
      "stateMutability": "nonpayable",
      "type": "function"
    },
    {
      "constant": false,
      "inputs": [
        {
          "internalType": "uint256",
          "name": "_tokenId",
          "type": "uint256"
        }
      ],
      "name": "settlePiggy",
      "outputs": [
        {
          "internalType": "bool",
          "name": "",
          "type": "bool"
        }
      ],
      "payable": false,
      "stateMutability": "nonpayable",
      "type": "function"
    },
    {
      "constant": false,
      "inputs": [
        {
          "internalType": "uint256",
          "name": "_tokenId",
          "type": "uint256"
        },
        {
          "internalType": "address",
          "name": "_newArbiter",
          "type": "address"
        }
      ],
      "name": "updateArbiter",
      "outputs": [
        {
          "internalType": "bool",
          "name": "",
          "type": "bool"
        }
      ],
      "payable": false,
      "stateMutability": "nonpayable",
      "type": "function"
    },
    {
      "constant": false,
      "inputs": [
        {
          "internalType": "uint256",
          "name": "_tokenId",
          "type": "uint256"
        },
        {
          "internalType": "uint256",
          "name": "_proposedPrice",
          "type": "uint256"
        }
      ],
      "name": "thirdPartyArbitrationSettlement",
      "outputs": [
        {
          "internalType": "bool",
          "name": "",
          "type": "bool"
        }
      ],
      "payable": false,
      "stateMutability": "nonpayable",
      "type": "function"
    },
    {
      "constant": false,
      "inputs": [
        {
          "internalType": "address",
          "name": "_collateralERC",
          "type": "address"
        },
        {
          "internalType": "address",
          "name": "_dataResolver",
          "type": "address"
        },
        {
          "internalType": "address",
          "name": "_arbiter",
          "type": "address"
        },
        {
          "internalType": "uint256",
          "name": "_collateral",
          "type": "uint256"
        },
        {
          "internalType": "uint256",
          "name": "_lotSize",
          "type": "uint256"
        },
        {
          "internalType": "uint256",
          "name": "_strikePrice",
          "type": "uint256"
        },
        {
          "internalType": "uint256",
          "name": "_expiry",
          "type": "uint256"
        },
        {
          "internalType": "uint256",
          "name": "_splitTokenId",
          "type": "uint256"
        },
        {
          "internalType": "bool",
          "name": "_isEuro",
          "type": "bool"
        },
        {
          "internalType": "bool",
          "name": "_isPut",
          "type": "bool"
        },
        {
          "internalType": "bool",
          "name": "_isRequest",
          "type": "bool"
        },
        {
          "internalType": "bool",
          "name": "_isSplit",
          "type": "bool"
        }
      ],
      "name": "_constructPiggy",
      "outputs": [
        {
          "internalType": "bool",
          "name": "",
          "type": "bool"
        }
      ],
      "payable": false,
      "stateMutability": "nonpayable",
      "type": "function"
    }
  ],
  "bytecode": "0x608060405234801561001057600080fd5b5060008054336001600160a01b0319909116811782558082526001602081905260408320805460ff199081168317909155600280549091168217610100600160a81b0319166101009093029290921760ff60a81b1916601960a91b1761ffff60b01b191661027160b41b179091556006556126f890819061009190396000f3fe608060405234801561001057600080fd5b50600436106101125760003560e01c8063024122c3146101175780630983ec95146101925780630a2eb301146101b157806317d70f7c146101d75780632894209f146101f1578063412753581461020e5780634b0c80861461023257806362a5af3b146102535780636a28f0001461025b578063787a08a6146102635780637974db4b1461026b5780637fd6f15c146102735780638705fcd4146102915780638da5cb5b146102b757806395d96ef8146102bf5780639dd44d2614610338578063a6f9dae11461035b578063bd5512f814610381578063c999117614610389578063dc7154cb146103af578063f4838176146103d5578063f74b9dcc146103f5575b600080fd5b61017e600480360361014081101561012e57600080fd5b508035906001600160a01b03602082013581169160408101358216916060820135169060808101359060a08101359060c08101359060e08101359061010081013515159061012001351515610421565b604080519115158252519081900360200190f35b61019a610860565b6040805161ffff9092168252519081900360200190f35b61017e600480360360208110156101c757600080fd5b50356001600160a01b0316610871565b6101df61088f565b60408051918252519081900360200190f35b61017e6004803603602081101561020757600080fd5b5035610895565b610216610c4a565b604080516001600160a01b039092168252519081900360200190f35b61017e6004803603602081101561024857600080fd5b503561ffff16610c5e565b61017e610d07565b61017e610d80565b6101df610dfb565b610216610e01565b61027b610e10565b6040805160ff9092168252519081900360200190f35b61017e600480360360208110156102a757600080fd5b50356001600160a01b0316610e20565b610216610eb6565b61017e60048036036101808110156102d657600080fd5b506001600160a01b03813581169160208101358216916040820135169060608101359060808101359060a08101359060c08101359060e08101359061010081013515159061012081013515159061014081013515159061016001351515610ec5565b61017e6004803603604081101561034e57600080fd5b50803590602001356116c0565b61017e6004803603602081101561037157600080fd5b50356001600160a01b0316611b0d565b61017e611b8a565b61017e6004803603602081101561039f57600080fd5b50356001600160a01b0316611b93565b61017e600480360360208110156103c557600080fd5b50356001600160a01b0316611c25565b61017e600480360360208110156103eb57600080fd5b503560ff16611cb1565b61017e6004803603604081101561040b57600080fd5b50803590602001356001600160a01b0316611d3f565b60025460009060ff1661046d576040805162461bcd60e51b815260206004820152600f60248201526e31b7b73a3930b1ba10333937bd32b760891b604482015290519081900360640190fd5b60008b8152600b60205260409020600101546001600160a01b031633146104d7576040805162461bcd60e51b815260206004820152601960248201527839b2b73232b91036bab9ba103132903a3432903437b63232b960391b604482015290519081900360640190fd5b60008b8152600b602052604090206012015460ff1661053a576040805162461bcd60e51b815260206004820152601a6024820152790796f752063616e206f6e6c792075706461746520616e205246560341b604482015290519081900360640190fd5b60008b8152600c6020526040902060060154610100900460ff16156105905760405162461bcd60e51b81526004018080602001828103825260258152602001806126216025913960400191505060405180910390fd5b60006001600160a01b038b16156105cc5760008c8152600b6020526040902060020180546001600160a01b0319166001600160a01b038d161790555b6001600160a01b038a16156106065760008c8152600b6020526040902060030180546001600160a01b0319166001600160a01b038c161790555b6001600160a01b038916156106405760008c8152600b6020526040902060040180546001600160a01b0319166001600160a01b038b161790555b871561065b5760008c8152600b60205260409020600c018890555b86156106765760008c8152600b602052604090206008018790555b85156106915760008c8152600b602052604090206009018690555b84156106be576106a7854363ffffffff61200316565b60008d8152600b60205260409020600a0181905590505b83600b60008e815260200190815260200160002060120160000160016101000a81548160ff02191690831515021790555082600b60008e815260200190815260200160002060120160000160026101000a81548160ff021916908315150217905550600b60008d8152602001908152602001600020600701600a01600181819054906101000a900460ff1660010191906101000a81548160ff021916908360ff160217905550600b60008d8152602001908152602001600020600701600a0160019054906101000a900460ff1660ff168c336001600160a01b03167f4e6e1cfd5dc908613636720b781b08d24a1b88e325340700b5ab603561cd65c98e8e8e8e8e8e8a8e8e604051808a6001600160a01b03166001600160a01b03168152602001896001600160a01b03166001600160a01b03168152602001886001600160a01b03166001600160a01b031681526020018781526020018681526020018581526020018481526020018315151515815260200182151515158152602001995050505050505050505060405180910390a45060019b9a5050505050505050505050565b600254600160b01b900461ffff1681565b6001600160a01b031660009081526001602052604090205460ff1690565b60055481565b6000336108a157600080fd5b816108ec576040805162461bcd60e51b8152602060048201526016602482015275746f6b656e49642063616e6e6f74206265207a65726f60501b604482015290519081900360640190fd5b6000828152600b60205260409020601201546301000000900460ff16610950576040805162461bcd60e51b81526020600482015260146024820152731c1a59d9de481a5cc81b9bdd0818db19585c995960621b604482015290519081900360640190fd5b6000828152600b60205260409020600401546001600160a01b0316156109c0576000828152600b60205260409020600d01544310156109c05760405162461bcd60e51b81526004018080602001828103825260278152602001806125cb6027913960400191505060405180910390fd5b6000828152600b6020526040812060120154610100900460ff1615610a40576000838152600b60205260409020600a0154431015610a40576040805162461bcd60e51b8152602060048201526018602482015277195d5c9bdc19585b881b5d5cdd08189948195e1c1a5c995960421b604482015290519081900360640190fd5b610a498361204f565b6000848152600b602052604090208054600182015460028301546007909301549394506001600160a01b0391821693908216929091169080851115610a8c578094505b6000610a9786612113565b6002546001600160a01b036101009091048116600090815260076020908152604080832093881683529290522054909150610ad8908263ffffffff61200316565b6002546001600160a01b036101009091048116600090815260076020818152604080842089861680865290835281852096909655938916835290815282822093825292909252902054610b43908290610b37908963ffffffff61200316565b9063ffffffff61214016565b6001600160a01b03808616600090815260076020818152604080842089861680865290835281852096909655938a16835290815282822093825292909252902054610b9a908790610b37908563ffffffff61200316565b6001600160a01b03808716600090815260076020908152604080832093881683529290522055610bd0868263ffffffff61214016565b6000898152600b6020526040902060070154899033907f24827fe6f8d4089bee240c9fb4b9fb5a994e34610b00aeb4cfc427f4807cca1a90610c18908b63ffffffff61214016565b60408051918252519081900360200190a4610c338489612188565b610c3c8861227d565b506001979650505050505050565b60025461010090046001600160a01b031681565b600033610c6a57600080fd5b3360009081526001602052604090205460ff1680610c9257506000546001600160a01b031633145b610c9b57600080fd5b61ffff8216610ca957600080fd5b6002805461ffff8416600160b01b810261ffff60b01b1990921691909117909155604080519182525133917fc20af7750b41232616a4efde03a6f716488a93e5797b0ae3532dbcfada391168919081900360200190a2506001919050565b600033610d1357600080fd5b3360009081526001602052604090205460ff1680610d3b57506000546001600160a01b031633145b610d4457600080fd5b6002805460ff1916905560405133907f8a5c4736a33c7b7f29a2c34ea9ff9608afc5718d56f6fd6dcbd2d3711a1a491390600090a25060015b90565b600033610d8c57600080fd5b3360009081526001602052604090205460ff1680610db457506000546001600160a01b031633145b610dbd57600080fd5b6002805460ff1916600117905560405133907f4feb53e305297ab8fb8f3420c95ea04737addc254a7270d8fc4605d2b9c61dba90600090a250600190565b60035481565b6004546001600160a01b031681565b600254600160a81b900460ff1681565b600033610e2c57600080fd5b3360009081526001602052604090205460ff1680610e5457506000546001600160a01b031633145b610e5d57600080fd5b60028054610100600160a81b0319166101006001600160a01b0385169081029190911790915560405133907f32c7f8c60f86ae20e5414c27c3d06e25fa775321683e23c95456c83d0ce0a65290600090a3506001919050565b6000546001600160a01b031681565b600080600560008154600101919050819055506000600b600060055481526020019081526020016000209050338160000160010160006101000a8154816001600160a01b0302191690836001600160a01b031602179055508e8160000160020160006101000a8154816001600160a01b0302191690836001600160a01b031602179055508d8160000160030160006101000a8154816001600160a01b0302191690836001600160a01b031602179055508c8160000160040160006101000a8154816001600160a01b0302191690836001600160a01b031602179055508a8160070160010181905550898160070160020181905550868160120160000160016101000a81548160ff021916908315150217905550858160120160000160026101000a81548160ff021916908315150217905550848160120160000160006101000a81548160ff02191690831515021790555084156110605761102c894363ffffffff61200316565b600c82018d9055915061103e8f612343565b60118201805460ff191660ff92909216919091179055600a810182905561139a565b831561130d57876110b1576040805162461bcd60e51b8152602060048201526016602482015275746f6b656e49642063616e6e6f74206265207a65726f60501b604482015290519081900360640190fd5b6000888152600b602052604090206012015460ff1615611111576040805162461bcd60e51b81526020600482015260166024820152750746f6b656e2063616e6e6f7420626520616e205246560541b604482015290519081900360640190fd5b6000888152600b60205260409020600101546001600160a01b0316331461117b576040805162461bcd60e51b81526020600482015260196024820152781bdb9b1e481d1a19481a1bdb19195c8818d85b881cdc1b1a5d603a1b604482015290519081900360640190fd5b6000888152600b60205260409020600a015443106111dd576040805162461bcd60e51b815260206004820152601a60248201527931b0b73737ba1039b83634ba1032bc3834b932b2103a37b5b2b760311b604482015290519081900360640190fd5b6000888152600c602052604090206006015460ff1615611244576040805162461bcd60e51b815260206004820152601d60248201527f63616e6e6f742073706c697420746f6b656e206f6e2061756374696f6e000000604482015290519081900360640190fd5b6000888152600b60205260409020601201546301000000900460ff16156112af576040805162461bcd60e51b815260206004820152601a60248201527931b0b73737ba1039b83634ba1031b632b0b932b2103a37b5b2b760311b604482015290519081900360640190fd5b6000888152600b60205260409020600a80820154825484546001600160a01b0319166001600160a01b03909116178455600784018f9055601192830154928401805460ff191660ff909416939093179092558201819055915061139a565b831561134a5760405162461bcd60e51b815260040180806020018281038252602a81526020018061269a602a913960400191505060405180910390fd5b61135a894363ffffffff61200316565b81546001600160a01b03191633178255600782018d9055915061137c8f612343565b60118201805460ff191660ff92909216919091179055600a81018290555b6113a633600554612476565b60408051600480825260a082019092526060916020820160808038833901905050905033816000815181106113d757fe5b60200260200101906001600160a01b031690816001600160a01b0316815250508f8160018151811061140557fe5b60200260200101906001600160a01b031690816001600160a01b0316815250508e8160028151811061143357fe5b60200260200101906001600160a01b031690816001600160a01b0316815250508d8160038151811061146157fe5b6001600160a01b039092166020928302919091019091015260408051600580825260c08201909252606091816020016020820280388339019050509050600554816000815181106114ae57fe5b6020026020010181815250508d816001815181106114c857fe5b6020026020010181815250508c816002815181106114e257fe5b6020026020010181815250508b816003815181106114fc57fe5b602002602001018181525050838160048151811061151657fe5b602090810291909101015260408051600380825260808201909252606091816020016020820280388339019050509050898160008151811061155457fe5b602002602001019015159081151581525050888160018151811061157457fe5b602002602001019015159081151581525050878160028151811061159457fe5b6020026020010190151590811515815250507f79c04e36c28d806bb8719f8cd7394009de667536bd850da3d9b1f88536ba7a8583838360405180806020018060200180602001848103845287818151815260200191508051906020019060200280838360005b838110156116125781810151838201526020016115fa565b50505050905001848103835286818151815260200191508051906020019060200280838360005b83811015611651578181015183820152602001611639565b50505050905001848103825285818151815260200191508051906020019060200280838360005b83811015611690578181015183820152602001611678565b50505050905001965050505050505060405180910390a16001955050505050509c9b505050505050505050505050565b6000336116cc57600080fd5b6000838152600b6020526040902060120154600160501b900460ff1615611736576040805162461bcd60e51b8152602060048201526019602482015278185c989a5d1c985d1a5bdb881a185cc81859dc99595b595b9d603a1b604482015290519081900360640190fd5b6000838152600b60205260409020600a0154431015611774576000838152600b60205260409020601201546301000000900460ff1661177457600080fd5b6000838152600b60205260409020600181015481546004909201546001600160a01b039182169282169116338314806117b55750336001600160a01b038316145b806117c85750336001600160a01b038216145b6118035760405162461bcd60e51b81526004018080602001828103825260298152602001806126716029913960400191505060405180910390fd5b336001600160a01b0384161415611857576000868152600b6020526040808220600f8101889055601201805460ff60381b1916600160381b179055518691889133916000805160206125ab83398151915291a45b336001600160a01b03831614156118ab576000868152600b6020526040808220600e8101889055601201805460ff60301b1916600160301b179055518691889133916000805160206125ab83398151915291a45b336001600160a01b03821614156118ff576000868152600b602052604080822060108101889055601201805460ff60401b1916600160401b179055518691889133916000805160206125ab83398151915291a45b6000868152600b6020526040902060120154600160381b900460ff16801561193f57506000868152600b6020526040902060120154600160301b900460ff165b8061198557506000868152600b6020526040902060120154600160381b900460ff16801561198557506000868152600b6020526040902060120154600160401b900460ff165b806119cb57506000868152600b6020526040902060120154600160301b900460ff1680156119cb57506000868152600b6020526040902060120154600160401b900460ff165b15611aff576000868152600b60205260408120600e810154600f9091015482911480611a0d57506000888152600b602052604090206010810154600f90910154145b15611a295750506000868152600b60205260409020600f015460015b6000888152600b602052604090206010810154600e909101541415611a5f5750506000868152600b60205260409020600e015460015b8015611af1576000888152600b60208181526040928390206012810180549190930186905563ff0000001960ff60501b19909116600160501b171663010000001790915581516001600160a01b0386168152915184928b9233927f5dcd55380bb21d96312136ea8ceddbf62271538a30e32bb24d1c6a9f88d5b63b9281900390910190a4600195505050505050611b07565b600095505050505050611b07565b600093505050505b92915050565b600033611b1957600080fd5b6000546001600160a01b03163314611b3057600080fd5b33611b3a57600080fd5b600080546001600160a01b0319166001600160a01b0384169081178255604051909133917f2748503f8f31d8071821d1d5144384ba6a465036cda17fa1629a8a2509ccee0e9190a3506001919050565b60025460ff1681565b600033611b9f57600080fd5b3360009081526001602052604090205460ff1680611bc757506000546001600160a01b031633145b611bd057600080fd5b6001600160a01b0382166000818152600160208190526040808320805460ff19169092179091555133917fc58b647b8ba5a8cab2f11f32673636cc1061324240972ed05e8cc005b81a4b7a91a3506001919050565b600033611c3157600080fd5b3360009081526001602052604090205460ff1680611c5957506000546001600160a01b031633145b611c6257600080fd5b6001600160a01b038216600081815260016020526040808220805460ff191690555133917ff9e81b32ad94eea71f47a6261f6b86e46455c01f34f83674d54ef4252fe1993891a3506001919050565b600033611cbd57600080fd5b3360009081526001602052604090205460ff1680611ce557506000546001600160a01b031633145b611cee57600080fd5b6002805460ff60a81b1916600160a81b60ff85169081029190911790915560405133907f7bb4c86515a87a036084a6fc21bafb2fe2bb3528fdfba10d09989f97e4a6252a90600090a3506001919050565b60006001600160a01b038216611d9c576040805162461bcd60e51b815260206004820152601e60248201527f6172626974657220616464726573732063616e6e6f74206265207a65726f0000604482015290519081900360640190fd5b6000838152600c602052604090206006015460ff1615611e00576040805162461bcd60e51b815260206004820152601a6024820152793a37b5b2b71031b0b73737ba1031329037b71030bab1ba34b7b760311b604482015290519081900360640190fd5b6000838152600b60205260409020600181015490546001600160a01b03918216911633821480611e385750336001600160a01b038216145b611e735760405162461bcd60e51b815260040180806020018281038252602f8152602001806125f2602f913960400191505060405180910390fd5b336001600160a01b0383161415611ec6576000858152600b6020526040902060128101805460ff60281b1916600160281b17905560060180546001600160a01b0386166001600160a01b03199091161790555b336001600160a01b0382161415611f19576000858152600b6020526040902060128101805460ff60201b1916600160201b17905560050180546001600160a01b0386166001600160a01b03199091161790555b6000858152600b6020526040902060120154600160281b900460ff168015611f5957506000858152600b6020526040902060120154600160201b900460ff165b15611ff8576000858152600b6020526040902060058101546006909101546001600160a01b0390811691161415611fed576000858152600b602052604080822060040180546001600160a01b0319166001600160a01b0388169081179091559051879233917fed242515ba1881ee5f014e0c11551aa69e7931c9f064a6d78c88906c07b5662c9190a4600192505050611b07565b600092505050611b07565b506000949350505050565b600082820183811015612048576040805162461bcd60e51b81526020600482015260086024820152670a6c2ccca9ac2e8d60c31b604482015290519081900360640190fd5b9392505050565b6000818152600b6020819052604082206012810154600982015492820154600883015460119093015460ff620100009093048316949391921684801561209457508284115b156120ac576120a9848463ffffffff61214016565b95505b841580156120b957508383115b156120d1576120ce838563ffffffff61214016565b95505b61210860646120fc846120f08a60ff8716600a0a63ffffffff6124b416565b9063ffffffff6124b416565b9063ffffffff61250e16565b979650505050505050565b600254600090819061204890600160b01b810461ffff16906120fc908690600160a81b900460ff166124b4565b600082821115612182576040805162461bcd60e51b81526020600482015260086024820152670a6c2ccca9ac2e8d60c31b604482015290519081900360640190fd5b50900390565b6001600160a01b0382166000908152600960205260408120546121b290600163ffffffff61214016565b6000838152600a602052604090205490915080821461224d576001600160a01b03841660009081526009602052604081208054849081106121ef57fe5b906000526020600020015490508060096000876001600160a01b03166001600160a01b03168152602001908152602001600020838154811061222d57fe5b6000918252602080832090910192909255918252600a9052604090208190555b6001600160a01b0384166000908152600960205260409020805490612276906000198301612563565b5050505050565b6000908152600b60208190526040822080546001600160a01b0319908116825560018201805482169055600482018054821690556002820180548216905560038201805482169055600582018054821690556006820180549091169055600781018390556008810183905560098101839055600a8101839055908101829055600c8101829055601181018054600d8301849055600e8301849055600f8301849055601083019390935561ffff1990921690915560120180546001600160581b0319169055565b60408051600481526024810182526020810180516001600160e01b031663313ce56760e01b1781529151815160009384936060936001600160a01b03881693919290918291908083835b602083106123ac5780518252601f19909201916020918201910161238d565b6001836020036101000a0380198251168184511680821785525050505050509050019150506000604051808303816000865af19150503d806000811461240e576040519150601f19603f3d011682016040523d82523d6000602084013e612413565b606091505b5091509150816124545760405162461bcd60e51b815260040180806020018281038252602b815260200180612646602b913960400191505060405180910390fd5b600081806020019051602081101561246b57600080fd5b505195945050505050565b6001600160a01b0390911660009081526009602081815260408084208054868652600a84529185208290559282526001810183559183529091200155565b6000826124c357506000611b07565b828202828482816124d057fe5b0414612048576040805162461bcd60e51b81526020600482015260086024820152670a6c2ccca9ac2e8d60c31b604482015290519081900360640190fd5b600080821161254f576040805162461bcd60e51b81526020600482015260086024820152670a6c2ccca9ac2e8d60c31b604482015290519081900360640190fd5b600082848161255a57fe5b04949350505050565b8154818355818111156125875760008381526020902061258791810190830161258c565b505050565b610d7d91905b808211156125a65760008155600101612592565b509056fe753ea8d69d7d6b1f4d50c3fad4b7198d77bc061bcda3d58b777be0b28dc9b61861726269746572207365742c206c6f636b656420666f7220636f6f6c646f776e20706572696f646f6e6c7920777269746572206f7220686f6c6465722063616e2070726f706f73652061206e6577206172626974657261756374696f6e20696e2070726f63657373206f66206265696e6720736174697366696564636f6e747261637420646f6573206e6f742070726f7065726c79207370656369667920646563696d616c7373656e646572206d75737420626520686f6c6465722c207772697465722c206f72206172626974657273706c69742063616e6e6f742062652074727565207768656e206372656174696e672061207069676779a265627a7a723158203d3de53b96c98cf305c3318e472b64e4a6277c520dcb66c1e38a78d168bc444564736f6c63430005110032",
  "source": "/**\n *  This is a helper contract for the SmartPiggies contract\n *  to relieve pressure from the codesize limit\n */\npragma solidity 0.5.17;\n\nimport \"./SafeMath.sol\";\n\ncontract Owned {\n  address payable public owner;\n  constructor() public {\n    owner = msg.sender;\n  }\n\n  event ChangedOwner(address indexed from, address indexed newOwner);\n\n  modifier onlyOwner() {\n    require(msg.sender != address(0));\n    require(msg.sender == owner);\n    _;\n  }\n\n  function changeOwner(address payable _newOwner)\n    public\n    onlyOwner\n    returns (bool)\n  {\n    require(msg.sender != address(0));\n    owner = _newOwner;\n    emit ChangedOwner(msg.sender, _newOwner);\n    return true;\n  }\n}\n\n\ncontract Administered is Owned {\n  mapping(address => bool) private administrators;\n  constructor(address _admin) public {\n    administrators[_admin] = true;\n  }\n\n  event AddedAdmin(address indexed from, address indexed newAdmin);\n  event DeletedAdmin(address indexed from, address indexed oldAdmin);\n\n  modifier onlyAdmin() {\n    // admin is an administrator or owner\n    require(msg.sender != address(0));\n    require(administrators[msg.sender] || msg.sender == owner);\n    _;\n  }\n\n  function isAdministrator(address _admin)\n    public\n    view\n    returns (bool)\n  {\n    return administrators[_admin];\n  }\n\n  function addAdministrator(address _newAdmin)\n    public\n    onlyAdmin\n    returns (bool)\n  {\n    administrators[_newAdmin] = true;\n    emit AddedAdmin(msg.sender, _newAdmin);\n    return true;\n  }\n\n  function deleteAdministrator(address _admin)\n    public\n    onlyAdmin\n    returns (bool)\n  {\n    administrators[_admin] = false;\n    emit DeletedAdmin(msg.sender, _admin);\n    return true;\n  }\n}\n\n\ncontract Freezable is Administered {\n  bool public notFrozen;\n  constructor() public {\n    notFrozen = true;\n  }\n\n  event Frozen(address indexed from);\n  event Unfrozen(address indexed from);\n\n  modifier whenNotFrozen() {\n  require(notFrozen, \"contract frozen\");\n  _;\n  }\n\n  function freeze()\n    public\n    onlyAdmin\n    returns (bool)\n  {\n    notFrozen = false;\n    emit Frozen(msg.sender);\n    return true;\n  }\n\n  function unfreeze()\n    public\n    onlyAdmin\n    returns (bool)\n  {\n    notFrozen = true;\n    emit Unfrozen(msg.sender);\n    return true;\n  }\n}\n\n\ncontract Serviced is Freezable {\n  using SafeMath for uint256;\n\n  address payable public feeAddress;\n  uint8   public feePercent;\n  uint16  public feeResolution;\n\n  event FeeAddressSet(address indexed from, address indexed newAddress);\n  event FeeSet(address indexed from, uint8 indexed newFee);\n  event ResolutionSet(address indexed from, uint16 newResolution);\n\n  constructor(address payable _feeAddress)\n    public\n  {\n    feeAddress = _feeAddress;\n    feePercent = 50;\n    feeResolution = 10**4;\n  }\n\n  function setFeeAddress(address payable _newAddress)\n    public\n    onlyAdmin\n    returns (bool)\n  {\n    feeAddress = _newAddress;\n    emit FeeAddressSet(msg.sender, _newAddress);\n    return true;\n  }\n\n  function setFeePercent(uint8 _newFee)\n    public\n    onlyAdmin\n    returns (bool)\n  {\n    feePercent = _newFee;\n    emit FeeSet(msg.sender, _newFee);\n    return true;\n  }\n\n  function setFeeResolution(uint16 _newResolution)\n    public\n    onlyAdmin\n    returns (bool)\n  {\n    require(_newResolution != 0);\n    feeResolution = _newResolution;\n    emit ResolutionSet(msg.sender, _newResolution);\n    return true;\n  }\n\n  function _getFee(uint256 _value)\n    internal\n    view\n    returns (uint256)\n  {\n    uint256 fee = _value.mul(feePercent).div(feeResolution);\n    return fee;\n  }\n}\n\n\ncontract PiggyHelper is Serviced {\n  //maintain storage layout of SmartPiggies contract\n  uint256 public cooldown;\n  address public helperAddress; // Smart Helper contract address in SmartPiggies slot\n  enum RequestType { Bid, Settlement } \n  bytes32 constant RTN_FALSE = bytes32(0x0000000000000000000000000000000000000000000000000000000000000000);\n  bytes32 constant TX_SUCCESS = bytes32(0x0000000000000000000000000000000000000000000000000000000000000001);\n  uint256 public tokenId;\n\n  uint256 private _guardCounter;\n\n  mapping (address => mapping(address => uint256)) private ERC20balances;\n  mapping (address => uint256) private bidBalances;\n  mapping (address => uint256[]) private ownedPiggies;\n  mapping (uint256 => uint256) private ownedPiggiesIndex;\n  mapping (uint256 => Piggy) private piggies;\n  mapping (uint256 => DetailAuction) private auctions;\n\n  struct DetailAddresses {\n    address writer;\n    address holder;\n    address collateralERC;\n    address dataResolver;\n    address arbiter;\n    address writerProposedNewArbiter;\n    address holderProposedNewArbiter;\n  }\n\n  struct DetailUints {\n    uint256 collateral;\n    uint256 lotSize;\n    uint256 strikePrice;\n    uint256 expiry;\n    uint256 settlementPrice; //04.20.20 oil price is negative :9\n    uint256 reqCollateral;\n    uint256 arbitrationLock;\n    uint256 writerProposedPrice;\n    uint256 holderProposedPrice;\n    uint256 arbiterProposedPrice;\n    uint8 collateralDecimals;  // store decimals from ERC-20 contract\n    uint8 rfpNonce;\n  }\n\n  struct BoolFlags {\n    bool isRequest;\n    bool isEuro;\n    bool isPut;\n    bool hasBeenCleared;  // flag whether the oracle returned a callback w/ price\n    bool writerHasProposedNewArbiter;\n    bool holderHasProposedNewArbiter;\n    bool writerHasProposedPrice;\n    bool holderHasProposedPrice;\n    bool arbiterHasProposedPrice;\n    bool arbiterHasConfirmed;\n    bool arbitrationAgreement;\n  }\n\n  struct DetailAuction {\n    uint256 startBlock;\n    uint256 expiryBlock;\n    uint256 startPrice;\n    uint256 reservePrice;\n    uint256 timeStep;\n    uint256 priceStep;\n    bool auctionActive;\n    bool satisfyInProgress;  // mutex guard to disallow ending an auction if a transaction to satisfy is in progress\n  }\n\n  struct Piggy {\n    DetailAddresses addresses; // address details\n    DetailUints uintDetails; // number details\n    BoolFlags flags; // parameter switches\n  }\n\n  event CreatePiggy(\n    address[] addresses,\n    uint256[] ints,\n    bool[] bools\n  );\n\n  event UpdateRFP(\n    address indexed from,\n    uint256 indexed tokenId,\n    uint8 indexed rfpNonce,\n    address collateralERC,\n    address dataResolver,\n    address arbiter,\n    uint256 reqCollateral,\n    uint256 lotSize,\n    uint256 strikePrice,\n    uint256 expiry,\n    bool isEuro,\n    bool isPut\n  );\n\n  event SettlePiggy(\n   address indexed from,\n   uint256 indexed tokenId,\n   uint256 indexed holderPayout,\n   uint256 writerPayout\n  );\n\n  event ArbiterSet(\n    address indexed from,\n    address indexed arbiter,\n    uint256 indexed tokenId\n  );\n\n  event PriceProposed(\n    address indexed from,\n    uint256 indexed tokenId,\n    uint256 indexed proposedPrice\n  );\n\n  event ArbiterSettled(\n    address indexed from,\n    address arbiter,\n    uint256 indexed tokenId,\n    uint256 indexed exercisePrice\n  );\n\n  constructor()\n    public\n    Administered(msg.sender)\n    Serviced(msg.sender)\n  {\n    _guardCounter = 1;\n  }\n\n  function updateRFP(\n    uint256 _tokenId,\n    address _collateralERC,\n    address _dataResolver,\n    address _arbiter,\n    uint256 _reqCollateral,\n    uint256 _lotSize,\n    uint256 _strikePrice,\n    uint256 _expiry,\n    bool _isEuro,  // MUST be specified\n    bool _isPut    // MUST be specified\n  )\n    public\n    whenNotFrozen\n    returns (bool)\n  {\n    require(piggies[_tokenId].addresses.holder == msg.sender, \"sender must be the holder\");\n    require(piggies[_tokenId].flags.isRequest, \"you can only update an RFP\");\n    require(!auctions[_tokenId].satisfyInProgress, \"auction in process of being satisfied\");\n    uint256 expiryBlock;\n    if (_collateralERC != address(0)) {\n      piggies[_tokenId].addresses.collateralERC = _collateralERC;\n    }\n    if (_dataResolver != address(0)) {\n      piggies[_tokenId].addresses.dataResolver = _dataResolver;\n    }\n    if (_arbiter != address(0)) {\n      piggies[_tokenId].addresses.arbiter = _arbiter;\n    }\n    if (_reqCollateral != 0) {\n      piggies[_tokenId].uintDetails.reqCollateral = _reqCollateral;\n    }\n    if (_lotSize != 0) {\n      piggies[_tokenId].uintDetails.lotSize = _lotSize;\n    }\n    if (_strikePrice != 0 ) {\n      piggies[_tokenId].uintDetails.strikePrice = _strikePrice;\n    }\n    if (_expiry != 0) {\n      // recalculate expiry calculation\n      expiryBlock = _expiry.add(block.number);\n      piggies[_tokenId].uintDetails.expiry = expiryBlock;\n    }\n    // Both must be specified\n    piggies[_tokenId].flags.isEuro = _isEuro;\n    piggies[_tokenId].flags.isPut = _isPut;\n\n    // increment update nonce\n    // protects fulfiller from auction front running\n    ++piggies[_tokenId].uintDetails.rfpNonce;\n\n    emit UpdateRFP(\n      msg.sender,\n      _tokenId,\n      piggies[_tokenId].uintDetails.rfpNonce,\n      _collateralERC,\n      _dataResolver,\n      _arbiter,\n      _reqCollateral,\n      _lotSize,\n      _strikePrice,\n      expiryBlock,\n      _isEuro,\n      _isPut\n    );\n\n    return true;\n  }\n\n  function settlePiggy(uint256 _tokenId)\n    public\n    returns (bool)\n  {\n    require(msg.sender != address(0));\n    require(_tokenId != 0, \"tokenId cannot be zero\");\n    // require a settlement price to be returned from an oracle\n    require(piggies[_tokenId].flags.hasBeenCleared, \"piggy is not cleared\");\n\n    // check if arbitratin is set, cooldown has passed\n    if (piggies[_tokenId].addresses.arbiter != address(0)) {\n     require(piggies[_tokenId].uintDetails.arbitrationLock <= block.number, \"arbiter set, locked for cooldown period\");\n    }\n\n    uint256 payout;\n\n    if(piggies[_tokenId].flags.isEuro) {\n     require(piggies[_tokenId].uintDetails.expiry <= block.number, \"european must be expired\");\n    }\n    payout = _calculateLongPayout(_tokenId);\n\n    // set the balances of the two counterparties based on the payout\n    address _writer = piggies[_tokenId].addresses.writer;\n    address _holder = piggies[_tokenId].addresses.holder;\n    address _collateralERC = piggies[_tokenId].addresses.collateralERC;\n\n    uint256 collateral = piggies[_tokenId].uintDetails.collateral;\n    if (payout > collateral) {\n     payout = collateral;\n    }\n    // extract the service fee\n    uint256 fee = _getFee(payout);\n    ERC20balances[feeAddress][_collateralERC] = ERC20balances[feeAddress][_collateralERC].add(fee);\n    ERC20balances[_holder][_collateralERC] = ERC20balances[_holder][_collateralERC].add(payout).sub(fee);\n    ERC20balances[_writer][_collateralERC] = ERC20balances[_writer][_collateralERC].add(collateral).sub(payout);\n\n    emit SettlePiggy(\n     msg.sender,\n     _tokenId,\n     payout.sub(fee),\n     piggies[_tokenId].uintDetails.collateral.sub(payout)\n    );\n\n    _removeTokenFromOwnedPiggies(_holder, _tokenId);\n    // clean up piggyId\n    _resetPiggy(_tokenId);\n    return true;\n  }\n\n  function updateArbiter(uint256 _tokenId, address _newArbiter)\n    public\n    returns (bool)\n  {\n    require(_newArbiter != address(0), \"arbiter address cannot be zero\");\n    require(!auctions[_tokenId].auctionActive, \"token cannot be on auction\");\n    address _holder = piggies[_tokenId].addresses.holder;\n    address _writer = piggies[_tokenId].addresses.writer;\n    require(msg.sender == _holder || msg.sender == _writer, \"only writer or holder can propose a new arbiter\");\n    if (msg.sender == _holder) {\n      piggies[_tokenId].flags.holderHasProposedNewArbiter = true;\n      piggies[_tokenId].addresses.holderProposedNewArbiter = _newArbiter;\n    }\n    if (msg.sender == _writer) {\n      piggies[_tokenId].flags.writerHasProposedNewArbiter = true;\n      piggies[_tokenId].addresses.writerProposedNewArbiter = _newArbiter;\n    }\n    if (piggies[_tokenId].flags.holderHasProposedNewArbiter && piggies[_tokenId].flags.writerHasProposedNewArbiter) {\n      if (piggies[_tokenId].addresses.holderProposedNewArbiter == piggies[_tokenId].addresses.writerProposedNewArbiter) {\n        piggies[_tokenId].addresses.arbiter = _newArbiter;\n        emit ArbiterSet(msg.sender, _newArbiter, _tokenId);\n        return true;\n      } else {\n        // new arbiter address did not match\n        return false;\n      }\n    }\n    // missing a proposal from one party\n    return false;\n  }\n\n  function thirdPartyArbitrationSettlement(uint256 _tokenId, uint256 _proposedPrice)\n    public\n    returns (bool)\n  {\n    // make sure address can't call as an unset arbiter\n    require(msg.sender != address(0));\n    // require that arbitration has not received agreement\n    require(!piggies[_tokenId].flags.arbitrationAgreement, \"arbitration has agreement\");\n    // if piggy did not cleared a price, i.e. oracle didn't return\n    // require that piggy is expired to settle via arbitration\n    if(block.number < piggies[_tokenId].uintDetails.expiry) {\n      require(piggies[_tokenId].flags.hasBeenCleared);\n    }\n\n    // set internal address references for convenience\n    address _holder = piggies[_tokenId].addresses.holder;\n    address _writer = piggies[_tokenId].addresses.writer;\n    address _arbiter = piggies[_tokenId].addresses.arbiter;\n\n    // check which party the sender is (of the 3 valid ones, else fail)\n    require(msg.sender == _holder || msg.sender == _writer || msg.sender == _arbiter, \"sender must be holder, writer, or arbiter\");\n\n    // set flag for proposed share for that party\n    if (msg.sender == _holder) {\n      piggies[_tokenId].uintDetails.holderProposedPrice = _proposedPrice;\n      piggies[_tokenId].flags.holderHasProposedPrice = true;\n      emit PriceProposed(msg.sender, _tokenId, _proposedPrice);\n    }\n    if (msg.sender == _writer) {\n      piggies[_tokenId].uintDetails.writerProposedPrice = _proposedPrice;\n      piggies[_tokenId].flags.writerHasProposedPrice = true;\n      emit PriceProposed(msg.sender, _tokenId, _proposedPrice);\n    }\n    if (msg.sender == _arbiter) {\n      piggies[_tokenId].uintDetails.arbiterProposedPrice = _proposedPrice;\n      piggies[_tokenId].flags.arbiterHasProposedPrice = true;\n      emit PriceProposed(msg.sender, _tokenId, _proposedPrice);\n    }\n\n    // see if 2 of 3 parties have proposed a share\n    if (piggies[_tokenId].flags.holderHasProposedPrice && piggies[_tokenId].flags.writerHasProposedPrice ||\n      piggies[_tokenId].flags.holderHasProposedPrice && piggies[_tokenId].flags.arbiterHasProposedPrice ||\n      piggies[_tokenId].flags.writerHasProposedPrice && piggies[_tokenId].flags.arbiterHasProposedPrice)\n    {\n      // if so, see if 2 of 3 parties have proposed the same amount\n      uint256 _settlementPrice = 0;\n      bool _agreement = false;\n      // check if holder has gotten agreement with either other party\n      if (piggies[_tokenId].uintDetails.holderProposedPrice == piggies[_tokenId].uintDetails.writerProposedPrice ||\n        piggies[_tokenId].uintDetails.holderProposedPrice == piggies[_tokenId].uintDetails.arbiterProposedPrice)\n      {\n        _settlementPrice = piggies[_tokenId].uintDetails.holderProposedPrice;\n        _agreement = true;\n      }\n\n      // check if the two non-holder parties agree\n      if (piggies[_tokenId].uintDetails.writerProposedPrice == piggies[_tokenId].uintDetails.arbiterProposedPrice)\n      {\n        _settlementPrice = piggies[_tokenId].uintDetails.writerProposedPrice;\n        _agreement = true;\n      }\n\n      if (_agreement) {\n        // arbitration has come to an agreement\n        piggies[_tokenId].flags.arbitrationAgreement = true;\n        // update settlement price\n        piggies[_tokenId].uintDetails.settlementPrice = _settlementPrice;\n        piggies[_tokenId].flags.hasBeenCleared = true;\n        // emit settlement event\n        emit ArbiterSettled(msg.sender, _arbiter, _tokenId, _settlementPrice);\n\n        return (true);\n      } else {\n        // no agreement\n        return false;\n      }\n    }\n    // 2 of 3 have not proposed\n    return false;\n  }\n\n  function _constructPiggy(\n    address _collateralERC,\n    address _dataResolver,\n    address _arbiter,\n    uint256 _collateral,\n    uint256 _lotSize,\n    uint256 _strikePrice,\n    uint256 _expiry,\n    uint256 _splitTokenId,\n    bool _isEuro,\n    bool _isPut,\n    bool _isRequest,\n    bool _isSplit\n  )\n    public\n    returns (bool)\n  {\n    // assuming all checks have passed:\n    uint256 tokenExpiry;\n    // tokenId should be allowed to overflow\n    ++tokenId;\n\n    // write the values to storage, including _isRequest flag\n    Piggy storage p = piggies[tokenId];\n    p.addresses.holder = msg.sender;\n    p.addresses.collateralERC = _collateralERC;\n    p.addresses.dataResolver = _dataResolver;\n    p.addresses.arbiter = _arbiter;\n    p.uintDetails.lotSize = _lotSize;\n    p.uintDetails.strikePrice = _strikePrice;\n    p.flags.isEuro = _isEuro;\n    p.flags.isPut = _isPut;\n    p.flags.isRequest = _isRequest;\n\n    // conditional state variable assignments based on _isRequest:\n    if (_isRequest) {\n      tokenExpiry = _expiry.add(block.number);\n      p.uintDetails.reqCollateral = _collateral;\n      p.uintDetails.collateralDecimals = _getERC20Decimals(_collateralERC);\n      p.uintDetails.expiry = tokenExpiry;\n    } else if (_isSplit) {\n      require(_splitTokenId != 0, \"tokenId cannot be zero\");\n      require(!piggies[_splitTokenId].flags.isRequest, \"token cannot be an RFP\");\n      require(piggies[_splitTokenId].addresses.holder == msg.sender, \"only the holder can split\");\n      require(block.number < piggies[_splitTokenId].uintDetails.expiry, \"cannot split expired token\");\n      require(!auctions[_splitTokenId].auctionActive, \"cannot split token on auction\");\n      require(!piggies[_splitTokenId].flags.hasBeenCleared, \"cannot split cleared token\");\n      tokenExpiry = piggies[_splitTokenId].uintDetails.expiry;\n      p.addresses.writer = piggies[_splitTokenId].addresses.writer;\n      p.uintDetails.collateral = _collateral;\n      p.uintDetails.collateralDecimals = piggies[_splitTokenId].uintDetails.collateralDecimals;\n      p.uintDetails.expiry = tokenExpiry;\n    } else {\n      require(!_isSplit, \"split cannot be true when creating a piggy\");\n      tokenExpiry = _expiry.add(block.number);\n      p.addresses.writer = msg.sender;\n      p.uintDetails.collateral = _collateral;\n      p.uintDetails.collateralDecimals = _getERC20Decimals(_collateralERC);\n      p.uintDetails.expiry = tokenExpiry;\n    }\n\n    _addTokenToOwnedPiggies(msg.sender, tokenId);\n\n    address[] memory a = new address[](4);\n    a[0] = msg.sender;\n    a[1] = _collateralERC;\n    a[2] = _dataResolver;\n    a[3] = _arbiter;\n\n    uint256[] memory i = new uint256[](5);\n    i[0] = tokenId;\n    i[1] = _collateral;\n    i[2] = _lotSize;\n    i[3] = _strikePrice;\n    i[4] = tokenExpiry;\n\n    bool[] memory b = new bool[](3);\n    b[0] = _isEuro;\n    b[1] = _isPut;\n    b[2] = _isRequest;\n\n    emit CreatePiggy(\n      a,\n      i,\n      b\n    );\n\n    return true;\n  }\n\n  function _getERC20Decimals(address _ERC20)\n    internal\n    returns (uint8)\n  {\n    // *** warning untrusted function call ***\n    (bool success, bytes memory _decBytes) = address(_ERC20).call(\n        abi.encodeWithSignature(\"decimals()\")\n      );\n     require(success, \"contract does not properly specify decimals\");\n     /**\n         allow for uint256 range of decimals,\n         if token contract saves decimals as uint256\n         accept uint256 value.\n         Cast return value before return to force uint8 spec\n      */\n     uint256 _ERCdecimals = abi.decode(_decBytes, (uint256));\n     return uint8(_ERCdecimals); // explicit cast, possible loss of resolution\n  }\n\n  function _calculateLongPayout(uint256 _tokenId)\n    internal\n    returns (uint256 _payout)\n  {\n    bool _isPut = piggies[_tokenId].flags.isPut;\n    uint256 _strikePrice = piggies[_tokenId].uintDetails.strikePrice;\n    uint256 _exercisePrice = piggies[_tokenId].uintDetails.settlementPrice;\n    uint256 _lotSize = piggies[_tokenId].uintDetails.lotSize;\n    uint8 _decimals = piggies[_tokenId].uintDetails.collateralDecimals;\n\n    if (_isPut && (_strikePrice > _exercisePrice)) {\n      _payout = _strikePrice.sub(_exercisePrice);\n    }\n    if (!_isPut && (_exercisePrice > _strikePrice)) {\n      _payout = _exercisePrice.sub(_strikePrice);\n    }\n    _payout = _payout.mul(10**uint256(_decimals)).mul(_lotSize).div(100);\n    return _payout;\n  }\n\n  function _addTokenToOwnedPiggies(address _to, uint256 _tokenId)\n    private\n  {\n    ownedPiggiesIndex[_tokenId] = ownedPiggies[_to].length;\n    ownedPiggies[_to].push(_tokenId);\n  }\n\n  function _removeTokenFromOwnedPiggies(address _from, uint256 _tokenId)\n    private\n  {\n    uint256 lastTokenIndex = ownedPiggies[_from].length.sub(1);\n    uint256 tokenIndex = ownedPiggiesIndex[_tokenId];\n\n    if (tokenIndex != lastTokenIndex) {\n      uint256 lastTokenId = ownedPiggies[_from][lastTokenIndex];\n      ownedPiggies[_from][tokenIndex] = lastTokenId;\n      ownedPiggiesIndex[lastTokenId] = tokenIndex;\n    }\n    ownedPiggies[_from].length--;\n  }\n\n  function _resetPiggy(uint256 _tokenId)\n    private\n  {\n    piggies[_tokenId].addresses.writer = address(0);\n    piggies[_tokenId].addresses.holder = address(0);\n    piggies[_tokenId].addresses.arbiter = address(0);\n    piggies[_tokenId].addresses.collateralERC = address(0);\n    piggies[_tokenId].addresses.dataResolver = address(0);\n    piggies[_tokenId].addresses.writerProposedNewArbiter = address(0);\n    piggies[_tokenId].addresses.holderProposedNewArbiter = address(0);\n    piggies[_tokenId].uintDetails.collateral = 0;\n    piggies[_tokenId].uintDetails.lotSize = 0;\n    piggies[_tokenId].uintDetails.strikePrice = 0;\n    piggies[_tokenId].uintDetails.expiry = 0;\n    piggies[_tokenId].uintDetails.settlementPrice = 0;\n    piggies[_tokenId].uintDetails.reqCollateral = 0;\n    piggies[_tokenId].uintDetails.collateralDecimals = 0;\n    piggies[_tokenId].uintDetails.arbitrationLock = 0;\n    piggies[_tokenId].uintDetails.writerProposedPrice = 0;\n    piggies[_tokenId].uintDetails.holderProposedPrice = 0;\n    piggies[_tokenId].uintDetails.arbiterProposedPrice = 0;\n    piggies[_tokenId].uintDetails.rfpNonce = 0;\n    piggies[_tokenId].flags.isRequest = false;\n    piggies[_tokenId].flags.isEuro = false;\n    piggies[_tokenId].flags.isPut = false;\n    piggies[_tokenId].flags.hasBeenCleared = false;\n    piggies[_tokenId].flags.writerHasProposedNewArbiter = false;\n    piggies[_tokenId].flags.holderHasProposedNewArbiter = false;\n    piggies[_tokenId].flags.writerHasProposedPrice = false;\n    piggies[_tokenId].flags.holderHasProposedPrice = false;\n    piggies[_tokenId].flags.arbiterHasProposedPrice = false;\n    piggies[_tokenId].flags.arbiterHasConfirmed = false;\n    piggies[_tokenId].flags.arbitrationAgreement = false;\n  }\n}\n",
  "sourcePath": "/Users/talgya/DAPPS/smartpiggiesGithub/smartpiggiesV1.5/contracts/PiggyHelper.sol",
  "compiler": {
    "name": "solc",
    "version": "0.5.17+commit.d19bba13.Emscripten.clang"
  },
  "schemaVersion": "3.0.19",
  "updatedAt": "2020-05-23T15:28:46.415Z",
  "devdoc": {
    "methods": {}
  },
  "userdoc": {
    "methods": {}
  }
}