{
  "contractName": "ResolverSelfAttack",
  "abi": [
    {
      "inputs": [
        {
          "internalType": "string",
          "name": "_dataSource",
          "type": "string"
        },
        {
          "internalType": "string",
          "name": "_underlying",
          "type": "string"
        },
        {
          "internalType": "string",
          "name": "_oracleService",
          "type": "string"
        },
        {
          "internalType": "string",
          "name": "_endpoint",
          "type": "string"
        },
        {
          "internalType": "string",
          "name": "_path",
          "type": "string"
        },
        {
          "internalType": "address",
          "name": "_oracleTokenAddress",
          "type": "address"
        },
        {
          "internalType": "uint256",
          "name": "_price",
          "type": "uint256"
        }
      ],
      "payable": false,
      "stateMutability": "nonpayable",
      "type": "constructor"
    },
    {
      "constant": true,
      "inputs": [],
      "name": "approveReturn",
      "outputs": [
        {
          "internalType": "string",
          "name": "",
          "type": "string"
        }
      ],
      "payable": false,
      "stateMutability": "view",
      "type": "function"
    },
    {
      "constant": true,
      "inputs": [],
      "name": "attackReturn",
      "outputs": [
        {
          "internalType": "string",
          "name": "",
          "type": "string"
        }
      ],
      "payable": false,
      "stateMutability": "view",
      "type": "function"
    },
    {
      "constant": true,
      "inputs": [
        {
          "internalType": "bytes32",
          "name": "",
          "type": "bytes32"
        }
      ],
      "name": "callers",
      "outputs": [
        {
          "internalType": "address",
          "name": "",
          "type": "address"
        }
      ],
      "payable": false,
      "stateMutability": "view",
      "type": "function"
    },
    {
      "constant": true,
      "inputs": [],
      "name": "count",
      "outputs": [
        {
          "internalType": "uint8",
          "name": "",
          "type": "uint8"
        }
      ],
      "payable": false,
      "stateMutability": "view",
      "type": "function"
    },
    {
      "constant": true,
      "inputs": [],
      "name": "dataSource",
      "outputs": [
        {
          "internalType": "string",
          "name": "",
          "type": "string"
        }
      ],
      "payable": false,
      "stateMutability": "view",
      "type": "function"
    },
    {
      "constant": true,
      "inputs": [],
      "name": "didApprove",
      "outputs": [
        {
          "internalType": "bool",
          "name": "",
          "type": "bool"
        }
      ],
      "payable": false,
      "stateMutability": "view",
      "type": "function"
    },
    {
      "constant": true,
      "inputs": [],
      "name": "didAttack",
      "outputs": [
        {
          "internalType": "bool",
          "name": "",
          "type": "bool"
        }
      ],
      "payable": false,
      "stateMutability": "view",
      "type": "function"
    },
    {
      "constant": true,
      "inputs": [],
      "name": "didRequest",
      "outputs": [
        {
          "internalType": "bool",
          "name": "",
          "type": "bool"
        }
      ],
      "payable": false,
      "stateMutability": "view",
      "type": "function"
    },
    {
      "constant": true,
      "inputs": [],
      "name": "didSatisfy",
      "outputs": [
        {
          "internalType": "bool",
          "name": "",
          "type": "bool"
        }
      ],
      "payable": false,
      "stateMutability": "view",
      "type": "function"
    },
    {
      "constant": true,
      "inputs": [],
      "name": "didXfer",
      "outputs": [
        {
          "internalType": "bool",
          "name": "",
          "type": "bool"
        }
      ],
      "payable": false,
      "stateMutability": "view",
      "type": "function"
    },
    {
      "constant": true,
      "inputs": [],
      "name": "endpoint",
      "outputs": [
        {
          "internalType": "string",
          "name": "",
          "type": "string"
        }
      ],
      "payable": false,
      "stateMutability": "view",
      "type": "function"
    },
    {
      "constant": true,
      "inputs": [],
      "name": "jobId",
      "outputs": [
        {
          "internalType": "bytes32",
          "name": "",
          "type": "bytes32"
        }
      ],
      "payable": false,
      "stateMutability": "view",
      "type": "function"
    },
    {
      "constant": true,
      "inputs": [],
      "name": "lastId",
      "outputs": [
        {
          "internalType": "bytes32",
          "name": "",
          "type": "bytes32"
        }
      ],
      "payable": false,
      "stateMutability": "view",
      "type": "function"
    },
    {
      "constant": true,
      "inputs": [],
      "name": "lastPrice",
      "outputs": [
        {
          "internalType": "uint256",
          "name": "",
          "type": "uint256"
        }
      ],
      "payable": false,
      "stateMutability": "view",
      "type": "function"
    },
    {
      "constant": true,
      "inputs": [],
      "name": "nonce",
      "outputs": [
        {
          "internalType": "uint8",
          "name": "",
          "type": "uint8"
        }
      ],
      "payable": false,
      "stateMutability": "view",
      "type": "function"
    },
    {
      "constant": true,
      "inputs": [],
      "name": "oracleService",
      "outputs": [
        {
          "internalType": "string",
          "name": "",
          "type": "string"
        }
      ],
      "payable": false,
      "stateMutability": "view",
      "type": "function"
    },
    {
      "constant": true,
      "inputs": [],
      "name": "oracleTokenAddress",
      "outputs": [
        {
          "internalType": "address",
          "name": "",
          "type": "address"
        }
      ],
      "payable": false,
      "stateMutability": "view",
      "type": "function"
    },
    {
      "constant": true,
      "inputs": [],
      "name": "path",
      "outputs": [
        {
          "internalType": "string",
          "name": "",
          "type": "string"
        }
      ],
      "payable": false,
      "stateMutability": "view",
      "type": "function"
    },
    {
      "constant": true,
      "inputs": [],
      "name": "price",
      "outputs": [
        {
          "internalType": "uint256",
          "name": "",
          "type": "uint256"
        }
      ],
      "payable": false,
      "stateMutability": "view",
      "type": "function"
    },
    {
      "constant": true,
      "inputs": [],
      "name": "priceReturn",
      "outputs": [
        {
          "internalType": "string",
          "name": "",
          "type": "string"
        }
      ],
      "payable": false,
      "stateMutability": "view",
      "type": "function"
    },
    {
      "constant": true,
      "inputs": [],
      "name": "requestReturn",
      "outputs": [
        {
          "internalType": "string",
          "name": "",
          "type": "string"
        }
      ],
      "payable": false,
      "stateMutability": "view",
      "type": "function"
    },
    {
      "constant": true,
      "inputs": [
        {
          "internalType": "bytes32",
          "name": "",
          "type": "bytes32"
        }
      ],
      "name": "requests",
      "outputs": [
        {
          "internalType": "address",
          "name": "requester",
          "type": "address"
        },
        {
          "internalType": "address",
          "name": "payee",
          "type": "address"
        },
        {
          "internalType": "uint256",
          "name": "tokenId",
          "type": "uint256"
        },
        {
          "internalType": "uint8",
          "name": "requestType",
          "type": "uint8"
        }
      ],
      "payable": false,
      "stateMutability": "view",
      "type": "function"
    },
    {
      "constant": true,
      "inputs": [],
      "name": "satisfyReturn",
      "outputs": [
        {
          "internalType": "string",
          "name": "",
          "type": "string"
        }
      ],
      "payable": false,
      "stateMutability": "view",
      "type": "function"
    },
    {
      "constant": true,
      "inputs": [],
      "name": "smartpiggies",
      "outputs": [
        {
          "internalType": "address",
          "name": "",
          "type": "address"
        }
      ],
      "payable": false,
      "stateMutability": "view",
      "type": "function"
    },
    {
      "constant": true,
      "inputs": [],
      "name": "tokenId",
      "outputs": [
        {
          "internalType": "uint256",
          "name": "",
          "type": "uint256"
        }
      ],
      "payable": false,
      "stateMutability": "view",
      "type": "function"
    },
    {
      "constant": true,
      "inputs": [],
      "name": "underlying",
      "outputs": [
        {
          "internalType": "string",
          "name": "",
          "type": "string"
        }
      ],
      "payable": false,
      "stateMutability": "view",
      "type": "function"
    },
    {
      "constant": true,
      "inputs": [],
      "name": "xferReturn",
      "outputs": [
        {
          "internalType": "string",
          "name": "",
          "type": "string"
        }
      ],
      "payable": false,
      "stateMutability": "view",
      "type": "function"
    },
    {
      "constant": false,
      "inputs": [],
      "name": "approve",
      "outputs": [],
      "payable": false,
      "stateMutability": "nonpayable",
      "type": "function"
    },
    {
      "constant": false,
      "inputs": [],
      "name": "satisfyAuction",
      "outputs": [],
      "payable": false,
      "stateMutability": "nonpayable",
      "type": "function"
    },
    {
      "constant": false,
      "inputs": [],
      "name": "requestSettlement",
      "outputs": [],
      "payable": false,
      "stateMutability": "nonpayable",
      "type": "function"
    },
    {
      "constant": false,
      "inputs": [
        {
          "internalType": "address",
          "name": "_funder",
          "type": "address"
        },
        {
          "internalType": "uint256",
          "name": "_oracleFee",
          "type": "uint256"
        },
        {
          "internalType": "uint256",
          "name": "_tokenId",
          "type": "uint256"
        },
        {
          "internalType": "uint8",
          "name": "_requestType",
          "type": "uint8"
        }
      ],
      "name": "fetchData",
      "outputs": [
        {
          "internalType": "bool",
          "name": "",
          "type": "bool"
        }
      ],
      "payable": false,
      "stateMutability": "nonpayable",
      "type": "function"
    },
    {
      "constant": false,
      "inputs": [
        {
          "internalType": "bytes32",
          "name": "_requestId",
          "type": "bytes32"
        },
        {
          "internalType": "uint256",
          "name": "_price",
          "type": "uint256"
        }
      ],
      "name": "attackCallback",
      "outputs": [],
      "payable": false,
      "stateMutability": "nonpayable",
      "type": "function"
    },
    {
      "constant": false,
      "inputs": [
        {
          "internalType": "bytes32",
          "name": "_requestId",
          "type": "bytes32"
        },
        {
          "internalType": "uint256",
          "name": "_price",
          "type": "uint256"
        }
      ],
      "name": "getPriceCallback",
      "outputs": [
        {
          "internalType": "bool",
          "name": "",
          "type": "bool"
        }
      ],
      "payable": false,
      "stateMutability": "nonpayable",
      "type": "function"
    },
    {
      "constant": true,
      "inputs": [],
      "name": "getOwner",
      "outputs": [
        {
          "internalType": "address",
          "name": "",
          "type": "address"
        }
      ],
      "payable": false,
      "stateMutability": "view",
      "type": "function"
    },
    {
      "constant": true,
      "inputs": [],
      "name": "getAddress",
      "outputs": [
        {
          "internalType": "address",
          "name": "",
          "type": "address"
        }
      ],
      "payable": false,
      "stateMutability": "view",
      "type": "function"
    },
    {
      "constant": false,
      "inputs": [
        {
          "internalType": "address",
          "name": "_spAddy",
          "type": "address"
        }
      ],
      "name": "setAddress",
      "outputs": [],
      "payable": false,
      "stateMutability": "nonpayable",
      "type": "function"
    },
    {
      "constant": false,
      "inputs": [
        {
          "internalType": "uint256",
          "name": "_id",
          "type": "uint256"
        }
      ],
      "name": "setTokenId",
      "outputs": [],
      "payable": false,
      "stateMutability": "nonpayable",
      "type": "function"
    },
    {
      "constant": false,
      "inputs": [],
      "name": "kill",
      "outputs": [],
      "payable": false,
      "stateMutability": "nonpayable",
      "type": "function"
    }
  ],
  "bytecode": "0x60806040523480156200001157600080fd5b506040516200187038038062001870833981810160405260e08110156200003757600080fd5b81019080805160405193929190846401000000008211156200005857600080fd5b9083019060208201858111156200006e57600080fd5b82516401000000008111828201881017156200008957600080fd5b82525081516020918201929091019080838360005b83811015620000b85781810151838201526020016200009e565b50505050905090810190601f168015620000e65780820380516001836020036101000a031916815260200191505b50604052602001805160405193929190846401000000008211156200010a57600080fd5b9083019060208201858111156200012057600080fd5b82516401000000008111828201881017156200013b57600080fd5b82525081516020918201929091019080838360005b838110156200016a57818101518382015260200162000150565b50505050905090810190601f168015620001985780820380516001836020036101000a031916815260200191505b5060405260200180516040519392919084640100000000821115620001bc57600080fd5b908301906020820185811115620001d257600080fd5b8251640100000000811182820188101715620001ed57600080fd5b82525081516020918201929091019080838360005b838110156200021c57818101518382015260200162000202565b50505050905090810190601f1680156200024a5780820380516001836020036101000a031916815260200191505b50604052602001805160405193929190846401000000008211156200026e57600080fd5b9083019060208201858111156200028457600080fd5b82516401000000008111828201881017156200029f57600080fd5b82525081516020918201929091019080838360005b83811015620002ce578181015183820152602001620002b4565b50505050905090810190601f168015620002fc5780820380516001836020036101000a031916815260200191505b50604052602001805160405193929190846401000000008211156200032057600080fd5b9083019060208201858111156200033657600080fd5b82516401000000008111828201881017156200035157600080fd5b82525081516020918201929091019080838360005b838110156200038057818101518382015260200162000366565b50505050905090810190601f168015620003ae5780820380516001836020036101000a031916815260200191505b5060409081526020828101519290910151600080546001600160a01b0319163317905589519294509250620003e9916004918a019062000495565b508551620003ff90600590602089019062000495565b5084516200041590600690602088019062000495565b507f343933363130636666313433343666373836663838656437393161623737303460095583516200044f90600790602087019062000495565b5082516200046590600890602086019062000495565b50600355600a80546001600160a01b0319166001600160a01b0392909216919091179055506200053a9350505050565b828054600181600116156101000203166002900490600052602060002090601f016020900481019282601f10620004d857805160ff191683800117855562000508565b8280016001018555821562000508579182015b8281111562000508578251825591602001919060010190620004eb565b50620005169291506200051a565b5090565b6200053791905b8082111562000516576000815560010162000521565b90565b611326806200054a6000396000f3fe608060405234801561001057600080fd5b50600436106101c25760003560e01c8063053f14da146101c757806306661abd146101e157806312424e3f146101ff57806317d70f7c146102095780631b076edc146102115780631c6dc0ce1461028e578063238192621461029657806338cc4831146102cd5780633dc06356146102f157806341c0e1b5146102f957806345a6ab9914610301578063517e2c23146103095780635e280f11146103115780636722b27d146103195780636f307dc3146103215780637936464e146103295780637f58d5181461034657806387ae750d1461034e578063893d20e81461038957806393b2a651146103915780639d86698514610399578063a035b1fe146103eb578063a3a0a1dd146103f3578063a3da2e4b14610416578063a59ec0251461041e578063ad70c2ef14610426578063afaafe8f1461042e578063affed0e014610436578063b9c1f0211461043e578063ba47c75d14610446578063bf6820151461044e578063c1292cc314610456578063c2939d971461045e578063c4a76b8414610466578063c929ccf31461046e578063daa64f951461048b578063e30081a014610493578063ea110435146104b9575b600080fd5b6101cf6104c1565b60408051918252519081900360200190f35b6101e96104c7565b6040805160ff9092168252519081900360200190f35b6102076104d7565b005b6101cf61060a565b610219610610565b6040805160208082528351818301528351919283929083019185019080838360005b8381101561025357818101518382015260200161023b565b50505050905090810190601f1680156102805780820380516001836020036101000a031916815260200191505b509250505060405180910390f35b61021961069e565b6102b9600480360360408110156102ac57600080fd5b50803590602001356106f9565b604080519115158252519081900360200190f35b6102d5610837565b604080516001600160a01b039092168252519081900360200190f35b61021961083c565b610207610897565b6102196108bc565b610207610917565b610219610a49565b6102d5610aa4565b610219610ab3565b6102d56004803603602081101561033f57600080fd5b5035610b0e565b6102b9610b29565b6102b96004803603608081101561036457600080fd5b5080356001600160a01b0316906020810135906040810135906060013560ff16610b39565b6102d5610e7c565b610207610e8b565b6103b6600480360360208110156103af57600080fd5b5035610fb7565b604080516001600160a01b0395861681529390941660208401528284019190915260ff16606082015290519081900360800190f35b6101cf610fee565b6102076004803603604081101561040957600080fd5b5080359060200135610ff4565b610219611003565b61021961105e565b6102196110b9565b6102b9611114565b6101e9611124565b61021961112d565b6102b9611188565b6102b9611198565b6101cf6111a8565b6101cf6111ae565b6102d56111b4565b6102076004803603602081101561048457600080fd5b50356111c3565b6102196111c8565b610207600480360360208110156104a957600080fd5b50356001600160a01b0316611223565b6102b9611245565b60025481565b600a54600160a01b900460ff1681565b6040805130602482015268056bc75e2d6310000060448083019190915282518083039091018152606490910182526020810180516001600160e01b031663095ea7b360e01b178152600a549251825192936000936060936001600160a01b039290921692620f42409287928291908083835b602083106105685780518252601f199092019160209182019101610549565b6001836020036101000a03801982511681845116808217855250505050505090500191505060006040518083038160008787f1925050503d80600081146105cb576040519150601f19603f3d011682016040523d82523d6000602084013e6105d0565b606091505b50805191935091506105e990600d906020840190611259565b5050600c8054911515600160a01b0260ff60a01b1990921691909117905550565b600b5481565b6004805460408051602060026001851615610100026000190190941693909304601f810184900484028201840190925281815292918301828280156106965780601f1061066b57610100808354040283529160200191610696565b820191906000526020600020905b81548152906001019060200180831161067957829003601f168201915b505050505081565b6012805460408051602060026001851615610100026000190190941693909304601f810184900484028201840190925281815292918301828280156106965780601f1061066b57610100808354040283529160200191610696565b60028181556000838152601460209081526040808320805494810154600390910154825160248101929092526044820187905260ff16606480830191909152825180830390910181526084909101825291820180516001600160e01b031663694c0ba760e11b17815290518251939485946060946001600160a01b039092169391929182918083835b602083106107a15780518252601f199092019160209182019101610782565b6001836020036101000a0380198251168184511680821785525050505050509050019150506000604051808303816000865af19150503d8060008114610803576040519150601f19603f3d011682016040523d82523d6000602084013e610808565b606091505b5080519193509150610821906012906020840190611259565b508161082c57600080fd5b506001949350505050565b305b90565b6008805460408051602060026001851615610100026000190190941693909304601f810184900484028201840190925281815292918301828280156106965780601f1061066b57610100808354040283529160200191610696565b6000546001600160a01b031633146108ae57600080fd5b6000546001600160a01b0316ff5b600e805460408051602060026001851615610100026000190190941693909304601f810184900484028201840190925281815292918301828280156106965780601f1061066b57610100808354040283529160200191610696565b600b5460135460408051602481019390935260ff90911660448084019190915281518084039091018152606490920181526020820180516001600160e01b0316631ca1806960e21b178152600c54915183516000936060936001600160a01b0390911692620f424092879282918083835b602083106109a75780518252601f199092019160209182019101610988565b6001836020036101000a03801982511681845116808217855250505050505090500191505060006040518083038160008787f1925050503d8060008114610a0a576040519150601f19603f3d011682016040523d82523d6000602084013e610a0f565b606091505b5080519193509150610a28906010906020840190611259565b5050600c8054911515600160b81b0260ff60b81b1990921691909117905550565b6007805460408051602060026001851615610100026000190190941693909304601f810184900484028201840190925281815292918301828280156106965780601f1061066b57610100808354040283529160200191610696565b600a546001600160a01b031681565b6005805460408051602060026001851615610100026000190190941693909304601f810184900484028201840190925281815292918301828280156106965780601f1061066b57610100808354040283529160200191610696565b6015602052600090815260409020546001600160a01b031681565b600c54600160b01b900460ff1681565b600a805460ff60a01b198116600160a01b9182900460ff9081166001810190911690920217909155600090819060609060021115610c8957600c54600b54604080516024810192909252600060448084019190915281518084039091018152606490920181526020820180516001600160e01b03166301a16e2d60e61b178152905182516001600160a01b0390941693909182918083835b60208310610bf05780518252601f199092019160209182019101610bd1565b6001836020036101000a0380198251168184511680821785525050505050509050019150506000604051808303816000865af19150503d8060008114610c52576040519150601f19603f3d011682016040523d82523d6000602084013e610c57565b606091505b50600c805460ff60a81b1916600160a81b8415150217905580519193509150610c8790600e906020840190611259565b505b6000610c93611255565b600181815560408051608081018252338082526001600160a01b038d811660208085019182528486018e815260ff808f166060880190815260008b815260148552898120985189549088166001600160a01b0319918216178a5595519a890180549b9097169a86169a909a17909555905160028701559251600395860180549190941660ff19909116179092556015909152929093208054909216909217905554909150610d429082906106f9565b50600380546001019055600a54604080516001600160a01b038b8116602483015230604483015260648083018c905283518084039091018152608490920183526020820180516001600160e01b03166323b872dd60e01b178152925182519190941693919282918083835b60208310610dcc5780518252601f199092019160209182019101610dad565b6001836020036101000a0380198251168184511680821785525050505050509050019150506000604051808303816000865af19150503d8060008114610e2e576040519150601f19603f3d011682016040523d82523d6000602084013e610e33565b606091505b50600c805460ff60b01b1916600160b01b8415150217905580519194509250610e6390600f906020850190611259565b5082610e6e57600080fd5b506001979650505050505050565b6000546001600160a01b031690565b600b546040805160248101929092526000604480840182905282518085039091018152606490930182526020830180516001600160e01b03166301a16e2d60e61b178152600c549251845192936060936001600160a01b0390911692620f4240928792909182918083835b60208310610f155780518252601f199092019160209182019101610ef6565b6001836020036101000a03801982511681845116808217855250505050505090500191505060006040518083038160008787f1925050503d8060008114610f78576040519150601f19603f3d011682016040523d82523d6000602084013e610f7d565b606091505b5080519193509150610f96906011906020840190611259565b5050600c8054911515600160c01b0260ff60c01b1990921691909117905550565b60146020526000908152604090208054600182015460028301546003909301546001600160a01b0392831693919092169160ff1684565b60035481565b610ffe82826106f9565b505050565b6010805460408051602060026001851615610100026000190190941693909304601f810184900484028201840190925281815292918301828280156106965780601f1061066b57610100808354040283529160200191610696565b6011805460408051602060026001851615610100026000190190941693909304601f810184900484028201840190925281815292918301828280156106965780601f1061066b57610100808354040283529160200191610696565b600d805460408051602060026001851615610100026000190190941693909304601f810184900484028201840190925281815292918301828280156106965780601f1061066b57610100808354040283529160200191610696565b600c54600160a81b900460ff1681565b60135460ff1681565b600f805460408051602060026001851615610100026000190190941693909304601f810184900484028201840190925281815292918301828280156106965780601f1061066b57610100808354040283529160200191610696565b600c54600160c01b900460ff1681565b600c54600160b81b900460ff1681565b60015481565b60095481565b600c546001600160a01b031681565b600b55565b6006805460408051602060026001851615610100026000190190941693909304601f810184900484028201840190925281815292918301828280156106965780601f1061066b57610100808354040283529160200191610696565b600c80546001600160a01b0319166001600160a01b0392909216919091179055565b600c54600160a01b900460ff1681565b4290565b828054600181600116156101000203166002900490600052602060002090601f016020900481019282601f1061129a57805160ff19168380011785556112c7565b828001600101855582156112c7579182015b828111156112c75782518255916020019190600101906112ac565b506112d39291506112d7565b5090565b61083991905b808211156112d357600081556001016112dd56fea265627a7a7231582021372551326911f520e58824072fe5cc1f5c61f4eda3d711b5bbb0ebb1ac594864736f6c63430005110032",
  "source": "pragma solidity >=0.4.24 <0.6.0;\n\n//import \"./RopstenConsumer.sol\";\n\ncontract ResolverSelfAttack {\n  address payable owner; //only for testing\n  bytes32 public lastId; //for testing\n  uint256 public lastPrice; //for testing\n  uint256 public price;\n  string public dataSource;\n  string public underlying;\n  string public oracleService;\n  string public endpoint; //https://api.coincap.io/v2/rates/ethereum\n  string public path; //\"data.rateUsd\"\n  bytes32 public jobId; //493610cff14346f786f88ed791ab7704\n  address public oracleTokenAddress;\n\n  uint8 public count;\n  uint256 public tokenId;\n  address public smartpiggies;\n  bool public didApprove;\n  bool public didAttack;\n  bool public didXfer;\n  bool public didSatisfy;\n  bool public didRequest;\n  string public approveReturn;\n  string public attackReturn;\n  string public xferReturn;\n  string public satisfyReturn;\n  string public requestReturn;\n  string public priceReturn;\n  uint8 public nonce;\n\n  struct Request {\n    address requester;\n    address payee;\n    uint256 tokenId;\n    uint8 requestType;\n  }\n\n  mapping(bytes32 => Request) public requests;\n  mapping(bytes32 => address) public callers;\n\n  constructor(\n    string memory _dataSource,\n    string memory _underlying,\n    string memory _oracleService,\n    string memory _endpoint,\n    string memory _path,\n    address _oracleTokenAddress,\n    uint256 _price\n  )\n    public\n  {\n    owner = msg.sender;\n    dataSource = _dataSource;\n    underlying = _underlying;\n    oracleService = _oracleService;\n    jobId = bytes32(\"493610cff14346f786f88ed791ab7704\");\n    endpoint = _endpoint;\n    path = _path;\n    price = _price;\n    oracleTokenAddress = _oracleTokenAddress;\n  }\n\n  function approve()\n    public\n  {\n    bytes memory payload = abi.encodeWithSignature(\"approve(address,uint256)\",address(this),100000000000000000000);\n    (bool success, bytes memory data) = address(oracleTokenAddress).call.gas(1000000)(payload);\n    approveReturn = string(data);\n    didApprove = success;\n  }\n\n  function satisfyAuction()\n    public\n  {\n    bytes memory payload = abi.encodeWithSignature(\"satisfyAuction(uint256,uint8)\",tokenId,nonce);\n    (bool success, bytes memory data) = address(smartpiggies).call.gas(1000000)(payload);\n    satisfyReturn = string(data);\n    didSatisfy = success;\n  }\n\n  function requestSettlement()\n    public\n  {\n    bytes memory payload = abi.encodeWithSignature(\"requestSettlementPrice(uint256,uint256)\",tokenId,0);\n    (bool success, bytes memory data) = address(smartpiggies).call.gas(1000000)(payload);\n    requestReturn = string(data);\n    didRequest = success;\n  }\n\n  function fetchData(address _funder, uint256 _oracleFee, uint256 _tokenId, uint8 _requestType)\n    public\n    returns (bool)\n  {\n    bool success;\n    bytes memory data;\n\n    if (count++ < 2) {\n      (success, data) = address(smartpiggies).call(\n        abi.encodeWithSignature(\n          \"requestSettlementPrice(uint256,uint256)\",\n          tokenId,\n          0\n        )\n      );\n      didAttack = success;\n      attackReturn = string(data);\n    }\n\n    bytes32 requestId = generateId();\n    lastId = requestId; //for testing | live network\n    requests[requestId] = Request({\n      requester: msg.sender,\n      payee: _funder,\n      tokenId: _tokenId,\n      requestType: _requestType\n      });\n    callers[requestId] = msg.sender;\n    getPriceCallback(requestId, price);\n\n    price++; // inc price if we make it here\n\n    // Pay the oracle\n    (success, data) = address(oracleTokenAddress).call(\n      abi.encodeWithSignature(\n        \"transferFrom(address,address,uint256)\",\n        _funder,\n        address(this),\n        _oracleFee\n      )\n    );\n    didXfer = success;\n    xferReturn = string(data);\n    require(success);\n\n    return true;\n\n  }\n\n  function attackCallback(bytes32 _requestId, uint256 _price)\n    public\n  {\n      getPriceCallback(_requestId, _price);\n  }\n\n  function getPriceCallback(bytes32 _requestId, uint256 _price)\n    public\n    //recordChainlinkFulfillment(_requestId)\n    returns (bool)\n  {\n    lastPrice = _price;\n    (bool success, bytes memory data) = address(requests[_requestId].requester).call(\n      abi.encodeWithSignature(\n        \"_callback(uint256,uint256,uint8)\",\n        requests[_requestId].tokenId,\n        _price,\n        requests[_requestId].requestType\n      )\n    );\n    priceReturn = string(data);\n    require(success);\n    return true;\n  }\n\n  /**\n  ** For local testing\n  **/\n  function generateId()\n    internal\n    view\n    returns (bytes32)\n  {\n    return bytes32(block.timestamp);\n  }\n\n  function getOwner()\n    public\n    view\n    returns (address)\n  {\n    return owner;\n  }\n\n  function getAddress()\n    public\n    view\n    returns (address)\n  {\n    return address(this);\n  }\n\n  function setAddress(address _spAddy)\n    public\n  {\n    smartpiggies = _spAddy;\n  }\n\n  function setTokenId(uint256 _id)\n    public\n  {\n    tokenId = _id;\n  }\n\n  function kill()\n    public\n  {\n    require(msg.sender == owner);\n    selfdestruct(owner);\n  }\n}\n",
  "sourcePath": "/Users/talgya/DAPPS/smartpiggiesGithub/smartpiggiesV1.5/contracts/ResolverSelfAttack.sol",
  "compiler": {
    "name": "solc",
    "version": "0.5.17+commit.d19bba13.Emscripten.clang"
  },
  "schemaVersion": "3.0.19",
  "updatedAt": "2020-05-23T15:28:46.501Z",
  "devdoc": {
    "methods": {}
  },
  "userdoc": {
    "methods": {}
  }
}